:020000040800F2
:100000009006002005010008FB190008D11800081F
:10001000F9190008F5070008D71D000800000000C6
:10002000000000000000000000000000FF190008B0
:100030003708000800000000FD190008551A0008E4
:100040001F0100081F0100081F0100081F01000810
:100050001F0100081F0100081F0100081F01000800
:100060001F0100081F0100081F0100081F010008F0
:10007000010800081F0100081F0100081F010008F7
:100080001F0100081F0100081F0100081F010008D0
:100090001F0100081F0100081F0100081F010008C0
:1000A0001F0100081F0100081F0100081F010008B0
:1000B0001F0100081F0100081F0100081F010008A0
:1000C0001F0100081F0100081F0100081F01000890
:1000D0001F0100081F0100081F0100081F01000880
:1000E0001F0100081F0100081F010008DFF810D0E1
:1000F00000F042FB004800476D280008AFF3008085
:10010000900600200648804706480047FEE7FEE7C5
:10011000FEE7FEE7FEE7FEE7FEE7FEE7FEE7FEE7B7
:10012000B51A0008ED000008202A04DB203A21FA65
:1001300002F00021704721FA02F3D040C2F1200200
:100140009140084319467047D2B201E000F8012BF4
:10015000491EFBD270470022F6E710B513460A4647
:1001600004461946FFF7F0FF204610BD80EA010261
:1001700010B502F00043400022D04A001FD0010E0B
:1001800001EB1261C0F35600C2F3560240F40000C6
:1001900042F40002A0FB022000047F39140400D0C6
:1001A000401C50EA124001D44000491EC2B20C0665
:1001B00004EBD010401C4008802A02D003E000204D
:1001C00010BD20F00100002900DA0020184310BD06
:1001D00030B480EA010202F0004530F0004221F024
:1001E000004013D090B1C30DD40DC2F31601C0F37B
:1001F0001600E41A41F4000140F400027D349142FB
:1002000001D3641C00E04900002C02DA30BC00205D
:1002100070474FF400000023914201D3891A034331
:1002200040084FEA4101F7D151B1914202D14FF05C
:10023000004105E002D24FF0010101E06FF0010141
:1002400003EBC450284430BC00F002BA2DE9FE4F45
:10025000804681EA0300C00F0C46009021F0004167
:1002600023F00045B8EB0200A94105D240462146E3
:1002700090461C460B46024623F00040104347D0F0
:10028000270DC7F30A00C3F30A510290401A0190E8
:1002900040286BDAC3F3130040F4801B00989246A9
:1002A00020B10023D2EB030A63EB0B0B01985946F4
:1002B000C0F14002504600F0AAF906460D465046ED
:1002C0005946019A00F0B2F910EB08006141002490
:1002D00087EA115284EAE7731A4340D0009A62B366
:1002E000019A012A4FEA075215DC001B61EB02015B
:1002F0004FF0004202EA0752CDE90042001C41F5EE
:10030000801132462B4600F0E9F903B0BDE8F08FCA
:1003100040462146F9E7001B61EB0201001C41F554
:10032000801300185B412018A2F5001747EB03016A
:1003300040EAD570B6196D4111E06D084FEA3606F6
:1003400045EAC0754FEA0752001B61EB0201001C31
:1003500041F5801149084FEA3000001951413246F9
:100360002B4603B0BDE8F04F00F0A9B90098012278
:1003700040000023D0EB020263EBE07300982146BB
:100380004FEAE074B8EB000061EB0401E9E783F0A9
:1003900000435BE781F0004158E72DE9FE4F81EA19
:1003A000030404F0004421F0004100944FF0000BDE
:1003B00023F0004350EA01045ED052EA03045BD00C
:1003C000C3F30A54C1F30A552C44A4F2F334019444
:1003D000A0FB0254C1F3130141F48011C3F31303D2
:1003E00043F4801301FB024400FB034E840A970A86
:1003F00044EA815447EA8357A4FB076802958D0AB3
:1004000005FB07854FEA932C04FB0C542705029D3E
:100410004FEA065847EA1637B5EB08056EEB070CAE
:10042000870E920E47EA811742EA8312A7FB020168
:10043000B6EB0B0164EB00042B0D43EA0C335E18A2
:1004400044EB1C50DA465146E7FB0201C5F31304A6
:100450004FEA0B3343EA14534FEA0432019C43EA58
:100460000603A4F10C040294009CCDE900B400F052
:1004700035F903B0BDE8F08F00200146F9E72DE91A
:10048000F04D81EA030404F0004B21F000451446CE
:100490004FF0000A23F0004150EA050220D054EA50
:1004A00001021DD0C5F30A570246C5F31303C1F379
:1004B0001300C1F30A5640F4801543F48013A7EBF0
:1004C0000608101BD64608F2FD3873EB050002D370
:1004D00008F1010801E092185B41B8F1000F03DA5E
:1004E00000200146BDE8F08D00204FF48011064643
:1004F00084460EE0171B73EB050705D3121B63EB55
:10050000050306434CEA010C49084FEA30009218F3
:100510005B4150EA0107EDD152EA030012D082EAB2
:10052000040083EA0501084305D0101BAB4106D245
:100530000122002306E000224FF0004302E06FF0AA
:10054000010253101AEB06004CEB085110EB0A00A5
:1005500041EB0B01BDE8F04D00F0B1B870B521F0F2
:10056000004303430CD0C1F30A550024D5EB040526
:1005700064EB0403D617AD1AB34102DB0020014639
:1005800070BD201841EB025170BD96230022114628
:1005900000F067B80EB5C10F80EAE0700844CA07E2
:1005A000002140F233438DE80E000A460B4600F06E
:1005B00095F803B000BDC1F30A5210B5C1F31301A1
:1005C00040F2FF3341F480119A4201DA002010BD5D
:1005D00040F233439A42A2F2334203DC5242FFF725
:1005E000A3FD10BD904010BD00F0004230F000406F
:1005F0000AD0C10D01F56071C0F3160042EA015145
:10060000C208400711437047002001467047202A66
:1006100004DB203A00FA02F1002070479140C2F159
:10062000200320FA03F3194390407047202A06DB89
:10063000CB17203A41FA02F043EAE07306E041FAB0
:1006400002F3D040C2F1200291400843194670479E
:100650000029A8BF7047401C490008BF20F00100D6
:10066000704710B4B0FA80FC00FA0CF050EA0104B4
:1006700004BF10BC704749B1CCF1200421FA04F446
:1006800011FA0CF118BF012121430843A3EB0C011F
:10069000CB1D4FEA00614FEA102042BF002010BC82
:1006A000704700EBC35010440029A4BF10BC704732
:1006B000401C490008BF20F0010010BC704710B575
:1006C000141E73F1000408DA401C41F10001921875
:1006D0005B411A4301D120F0010010BD2DE9F04D1E
:1006E00092469B4611B1B1FA81F202E0B0FA80F273
:1006F00020329046FFF78BFF04460F4640EA0A007F
:1007000041EA0B0153465A46084313D0114653EAB7
:10071000010019D0C8F140025046FFF705FD05461B
:100720000E46504659464246FFF771FF084305D032
:10073000012004E020463946BDE8F08D0020054345
:1007400046EAE0762C4337430A986305E40AA0EBB7
:1007500008000022FD0A44EA47540A3002D500206E
:100760000146E9E7010510196941DDE9084500196D
:100770006941BDE8F04DA2E7064C074D06E0E06890
:1007800040F0010394E8070098471034AC42F6D3D8
:10079000FFF7B0FC682B0008882B00080EB540F26C
:1007A000334102910021CDE900110A460B46FFF7C3
:1007B00095FF03B000BD70B5C1F30A5201F00045CA
:1007C0000024C1F3130140F2FF3341F480119A4237
:1007D00001DA002070BD40F233439A42A2F2334264
:1007E00003DC5242FFF7A0FC00E090402C43F1D024
:1007F000404270BDFEE7000440EA0120104370470C
:10080000014800F01BB80000C000002030B590F88F
:1008100040500124AC40C56B6C6004686360436861
:10082000102B036803D099600068C26030BD9A60E5
:100830000068C16030BD704772B6FEE72DE9F05F19
:10084000C16B0C6801680B68D0F840C0042202FA42
:100850000CF2494DDFF824A1494E4A4FDFF828B188
:10086000DFF828E122422CD05A072AD50A689206DE
:1008700003D40A6822F004020A600168A94201D187
:10088000042219E0514501D1402215E0B14202D1C4
:100890004FF4806210E0B94202D14FF480420BE085
:1008A000594502D14FF4802206E0714502D14FF440
:1008B000800201E04FF080622F4908394A60C16A26
:1008C0003BE04FF0020808FA0CF818EA040F4FF06A
:1008D00000094FF0010235D05FEA837832D50B680A
:1008E0009B0605D40B6823F00A030B6080F82120D7
:1008F0000168A94201D1022219E0514501D120220B
:1009000015E0B14202D14FF4007210E0B94202D1B9
:100910004FF400520BE0594502D14FF4003206E08B
:10092000714502D14FF4001201E04FF000721249FC
:1009300008394A6080F82090816A00291AD0BDE801
:10094000F05F0847082505FA0CF5254212D01B0771
:1009500010D50B6823F00E030B6090F84010C36BAA
:1009600002FA01F15960826380F8212080F820901A
:10097000016BE2E7BDE8F09F080002401C00024066
:100980003000024044000240580002406C00024027
:1009900030B528B308C8134914221944B1FBF2F149
:1009A0008900C16310498163022141771A6843F6C7
:1009B000F0718A43D0E900142143D0E902452C4369
:1009C000214304692143446921438469214311433C
:1009D000196000214163012242770177084630BD4A
:1009E000012030BDF8FFFDBF0000024070B5044695
:1009F00090F82000002501280CD0012084F8200068
:100A000094F821600020012E06D084F820000225F1
:100A1000284670BD022070BD022684F82160A063C4
:100A20002068066826F0010606602046FFF7EEFE05
:100A3000E06A00282068016802D041F00E0106E05B
:100A400021F0040101602068016841F00A010160A1
:100A50002068016841F001010160D9E72DE9F84FF4
:100A6000DFF8B891002409F1040A0AF1040B2346C7
:100A70000F270BF1040EC9E00125A5402A40AA4228
:100A80007DD1674ED1F804C0ACEB0608B44532D036
:100A900014DCBCF1030F3AD009DCBCF1000F2AD002
:100AA000BCF1010F1CD0BCF1020F31D11DE0BCF133
:100AB000110F17D0BCF1120F2AD119E0B8F5881F19
:100AC00019D006DCB8F5803F15D0B8F5801F1FD1CE
:100AD00011E0B8F5001F0ED0B8F5041F18D10AE0D8
:100AE000CB6815E0CB681B1D12E0CB6808330FE024
:100AF000CB680C330CE08B682BB1012B4FF0080353
:100B000003D0456104E0042302E0056100E0002316
:100B1000FF2A01D8064601E000F104064FEA8405E9
:100B200001D9A5F12005D6F8008007FA05FC28EACE
:100B30000C0803FA05F548EA0508C6F800804D6878
:100B4000ED0062D5374DAE6946F00106AE61AD6984
:100B500024F0030605F001050095334D06EB050C66
:100B6000DCF80850A607360F07FA06F825EA08054C
:100B7000DFF8B880404503D14FF0000817E044E0AB
:100B8000DFF8AC80404502D14FF001080FE0DFF8FC
:100B9000A480404502D14FF0020808E0DFF89880B9
:100BA000404502D14FF0030801E04FF0040808FA75
:100BB00006F848EA0508CCF808804D68D9F80060C6
:100BC000ED034D4601D5164300E096432E604D6877
:100BD000DAF80060AD03554601D5164300E09643B0
:100BE0002E604D68DBF80060ED025D4601D51643CE
:100BF00000E096432E604D68DEF80060AD02754659
:100C000001D5164300E096432E60641C0D682A4609
:100C1000E5407FF431AFBDE8F88F000000040140EB
:100C200000001110001002400000014000080140C7
:100C3000000C014000100140001401400148806890
:100C400070470000000000200248816802781144CB
:100C50008160704700000020074810B5016841F02E
:100C600010010160032000F075F8002000F006F884
:100C700000F024F8002010BD0020024070B50D4D9A
:100C800004464FF47A712878B1FBF0F00A490968FC
:100C9000B1FBF0F000F0D8FA48B9102C07D20022CE
:100CA0002146501E00F036F800206C6070BD012017
:100CB00070BD0000000000200C0000200C4808B5AA
:100CC000816941F001018161816901F001010091B7
:100CD000C16941F08051C161C06900F0805000904D
:100CE0000448416821F0E06141F00071416008BDB5
:100CF0000010024000000140002809DB00F01F0244
:100D0000012191404009800000F1E020C0F800116D
:100D100070470000F0B40E4B1B680C46C3F302236F
:100D2000C3F10705042D00D90425191D072901D297
:100D3000002300E0DB1E012606FA05F1491E2140D2
:100D400099409E40761E16403143F0BC01F015BA22
:100D50000CED00E0064900F0070208684FF6FF03BB
:100D6000184040EA0220034A104308607047000020
:100D70000CED00E00000FA052DE9F0470F460500F4
:100D800061D0434E306800F00700B84209D23068A5
:100D900020F0070038433060306800F00700B842A8
:100DA00051D128683B4C810712D5400703D56068B4
:100DB00040F4E06060602878000703D5606840F484
:100DC000605060606068A96820F0F00008436060CF
:100DD0002878C00728D06868012810D02168022828
:100DE00010D0890700292EDA616821F00301014340
:100DF0006160FFF723FF804641F288390DE02168EA
:100E00008903EFE78901EDE7FFF718FFA0EB080181
:100E1000494502D90320BDE8F0876068696800F0A1
:100E20000C00B0EB810FEFD1306800F00700B84242
:100E30000BD9306820F0070038433060306800F08C
:100E40000700B84201D00120E5E72878400705D522
:100E50006068E96820F4E060084360602878000773
:100E600006D56068296920F4605040EAC1006060DE
:100E700000F018F86168084AC1F30311515CC840DA
:100E80000649086006480068FFF7F8FE0020C2E740
:100E90000020024000100240382A00080C00002008
:100EA0000400002012A185B00FC98DE80F0014A026
:100EB000144A006804905168134801F00C03042B95
:100EC00010D0082B0ED1C1F38343C9031DF80300D2
:100ED0000AD5516804AAC1F34041515C0A4A504303
:100EE000B0FBF1F005B0704708494843FAE700004D
:100EF00002030405060708090A0B0C0D0E0F10105B
:100F0000010200000010024000127A0000093D00BA
:100F10002DE9F84F040070D02078C04DC00749D0AB
:100F20006868C0F38100012807D06868C0F38100B9
:100F3000022809D16868C00306D52868800339D51E
:100F400060680028E7D035E06068B0F5803F0BD0DE
:100F500010B1B0F5A02F11D0286820F4803028609F
:100F6000286820F4802002E0286840F4803028605F
:100F7000606890B1FFF762FE06460AE0286840F418
:100F800080202860F0E700BFFFF758FE801B642830
:100F900073D828688003F7D50CE0FFF74FFE0646AC
:100FA00005E000BFFFF74AFE801B6428F0D82868E0
:100FB0008003F7D420789A4E80074FF001094FF054
:100FC000000839D5686810F00C0F07D06868C0F3C6
:100FD0008100022809D16868C00306D42868800708
:100FE00014D52069012808D110E02069B0B1C6F8F5
:100FF0000090FFF723FE074605E00AE1FFF71EFE1B
:10100000C01B0228C4D828688007F7D52868616902
:1010100020F0F80040EAC10028600DE0C6F800802A
:10102000FFF70CFE074604E0FFF708FEC01B02288E
:1010300023D828688007F7D4207800072CD5794872
:10104000A169D9B1C0F80090FFF7F8FD074604E0A8
:10105000FFF7F4FDC01B02280FD8686A8007F7D598
:1010600071484FF4FA510068B0FBF1F0009000BFF6
:101070000098411E0091FAD20EE080E0C0F8008096
:10108000FFF7DCFD074604E0FFF7D8FDC01B022890
:1010900075D8686A8007F7D42078400760D5E8697A
:1010A0000027C00008D4E86940F08050E861E86992
:1010B000012700F0805000905C480168C90513D4F6
:1010C0000168834641F480710160FFF7B7FD8246F5
:1010D00006E000BFFFF7B2FDA0EB0A0064284ED87F
:1010E000DBF80000C005F5D5E06801280AD008B19A
:1010F000052813D0286A20F001002862286A20F011
:10110000040002E0286A40F001002862E06841F231
:10111000883B98B1FFF792FD82460BE0286A40F0C9
:1011200004002862EEE700BFFFF788FDA0EB0A018C
:1011300059455AD8286A8007F6D50CE0FFF77EFD9E
:10114000824605E0FFF77AFDA0EB0A0159454CD82D
:10115000286A8007F6D41FB1E86920F08050E86162
:10116000E06988B36968C1F38101022944D002288B
:10117000C6F8608004D0FFF761FD044638E034E033
:10118000FFF75CFD074604E0FFF758FDC01B02288F
:101190002BD828688001F7D4206AB0F5803F05D1AC
:1011A0006868A16820F4003008436860D4E9080149
:1011B0000843696821F4741108436860C6F86090B8
:1011C000FFF73CFD044606E025E000BFFFF736FDD3
:1011D000001B022809D828688001F7D51BE000BF52
:1011E000FFF72CFD001B022802D90320BDE8F88F71
:1011F00028688001F4D40EE00128F7D06868226ADC
:1012000000F48031914204D1616A00F47010884288
:1012100001D00120EAE70020E8E7000000100240CA
:1012200000004242800442420C0000200070004056
:101230004FF0E0210428086903D020F00400086181
:10124000704740F00400FAE710B5401EB0F1807F0F
:1012500001D3012010BD4FF0E02460610F21601721
:1012600000F08BFF0020A06107202061002010BD4E
:1012700010B590F83C20012A22D0012280F83C20B1
:10128000CA688C6822F4407222434C6822F480625F
:1012900022430C6822F4006222430C6922F480523B
:1012A00022434C6922F400522243C969002322F4EC
:1012B00080420A4301684A6480F83C30002010BD37
:1012C000022010BD70B590F83C20012A26D00124E0
:1012D00080F83C40022280F83D2003685A689D68EF
:1012E00022F070060A6832435A600D4B02689A4237
:1012F00008D0B2F1804F05D00A4B9A4202D00A4B77
:101300009A4204D1496825F080031943916080F81E
:101310003D40002180F83C10084670BD022070BDA1
:10132000002C0140000400400008004010B50400FB
:1013300003D094F83D0010B107E0012010BD00205B
:1013400084F83C00204600F01FF8022084F83D009D
:10135000211D206800F0B0FB012084F8460084F8CD
:101360003E0084F83F0084F8400084F8410084F88F
:10137000420084F8430084F8440084F8450084F86F
:101380003D00002010BD000038B505460068124938
:10139000884220D11148816941F4006181618069EE
:1013A000104C00F4006000900D4820601020606038
:1013B00000208021C4E90201490021618900C4E9BB
:1013C00005108800E0612046FFF7E2FA08B1FFF758
:1013D00033FA6C62656238BD002C01400010024097
:1013E0001C000240C000002070B5044690F83C008C
:1013F000012817D0012584F83C50022084F83D00D4
:101400002068826822F0770222F47F4282600868B6
:10141000502830D00DDC20284DD005DC98B31028A2
:101420003BD148E0022070BD302844D0402834D160
:1014300039E0602828D0702806D0B0F5805F2CD025
:10144000B0F5005F29D10AE0CB68D1E9012120681D
:1014500000F0EAFB2068816841F0770109E0CB6881
:10146000D1E90121206800F0DFFB2068816841F4A8
:101470008041816011E0CA684968206800F088FCFA
:101480005021206807E016E0CA684968206800F02B
:1014900090FC6021206800F0D1FB84F83D500020D2
:1014A00084F83C0070BDCA684968206800F070FC90
:1014B00040212068EFE7226801461046EBE77047BD
:1014C00000B585B00021009101910291039100685F
:1014D0000B49884212D10B48816941F004018161B6
:1014E0008069694600F0040004904FF48070009019
:1014F0000220019003900448FFF7B0FA05B000BD48
:10150000002C0140001002400008014070B5044664
:1015100090F83C000D4601280AD0012084F83C00D8
:1015200042B1042A18D0082A2AD00C2A4DD139E019
:10153000022070BD206800F089FB2068816941F0BD
:10154000080181612068816921F0040181612068BE
:1015500081692A69114311E0206800F09FFB20682F
:10156000816941F4006181612068816921F48061B1
:101570008161206881692A6941EA0221816124E050
:10158000206800F0B7FB2068C16941F00801C16123
:101590002068C16921F00401C1612068C1692A691C
:1015A000114311E0206800F0D1FB2068C16941F4CB
:1015B0000061C1612068C16921F48061C161206856
:1015C000C1692A6941EA0221C161002084F83C0016
:1015D00070BD10B5040003D094F83D0010B107E0D1
:1015E000012010BD002084F83C00204600F01EF8C9
:1015F000022084F83D00211D206800F05DFA0120E2
:1016000084F8460084F83E0084F83F0084F84000E7
:1016100084F8410084F8420084F8430084F84400D0
:1016200084F8450084F83D00002010BD704700009C
:101630000021014800F014B9780000207047000034
:1016400010B50446022249B104290ED0082913D04E
:1016500094F84100012816D0012010BD94F83E00F6
:101660000128F9D184F83E200FE094F83F000128CA
:10167000F2D184F83F2008E094F840000128EBD133
:1016800084F8402001E084F841200122206800F025
:1016900049FA0F492068884203D1426C42F4004263
:1016A00042642068884208D0B0F1804F05D00949D3
:1016B000884202D00849884204D1816801F00701BC
:1016C000062903D0016841F001010160002010BD2E
:1016D000002C014000040040000800402DE9F041CA
:1016E00017460D0004460CD0042D11D0082D16D03D
:1016F00094F84100022819D094F84100012818D02C
:101700009AE094F83E00022810D094F83E00F5E7E5
:1017100094F83F00022809D094F83F00EEE794F8CF
:101720004000022802D094F84000E7E70220BDE81C
:10173000F0810FB9002B7FD14349444E444A022027
:1017400045B1042D16D0082D24D084F841000C2D6D
:101750003AD164E084F83E00606A8162606A39468A
:10176000C662606A02632268606A3432FFF73EF93B
:10177000F0BB1FE084F83F00A06A8162A06A39468E
:10178000C662A06A02632268A06A3832FFF72EF9A7
:1017900070BB14E084F84000E06A8162E06A394678
:1017A000C662E06A02632268E06A3C32FFF71EF913
:1017B000F0B92FE02068C16841F4007103E02068AF
:1017C000C16841F48061C16001222946206800F0AF
:1017D000A9F920492068884203D1426C42F40042B2
:1017E0004264206888420AD0B0F1804F07D000E000
:1017F00022E01949884202D01849884204D1816800
:1018000001F00701062903D0016841F001010160E0
:1018100000208CE72068C16841F40061D3E7206BA9
:101820008162206B3946C662206B02632268206B9E
:101830004032FFF7DBF808B1012078E72068C16883
:1018400041F48051BFE700003F1B00089D1B0008CA
:10185000D51B0008002C0140000400400008004097
:1018600030B504460D460068002200F05BF9174BC6
:1018700041F2111120688A10984209D1036A0B4283
:1018800006D1036A134203D1436C23F4004343643B
:101890002068036A0B4206D1016A114203D1016834
:1018A00021F00101016001203DB1042D08D0082D77
:1018B00009D084F84100002030BD84F83E00FAE7EA
:1018C00084F83F00F7E784F84000F4E7002C01407B
:1018D000FEE70000094808B5416941F00101416196
:1018E0004069002200F00100009011460C20FFF733
:1018F00011FABDE808400C20FFF7FEB900100240C5
:10190000094808B5816941F020018161816901F0D0
:1019100020010091816941F004018161806900F03A
:101920000400009008BD00000010024010B596B001
:1019300000240F9410941194129413941C2108A85D
:101940001494FEF708FC20216846FEF704FC2948A1
:101950002749C0E900143B21C0E90241802104610C
:10196000C0E90541FFF7E2FC08B1FEF765FF4FF45F
:1019700080500F900FA91F48FFF736FD08B1FEF702
:101980005BFF1C48FFF725FE08B1FEF755FF20203E
:10199000CDE9130413A91748FFF794FC08B1FEF72B
:1019A0004BFF6020CDE9080404200A94CDE90B40E8
:1019B0000D94002208A90F480E94FFF7A7FD08B167
:1019C000FEF73AFF00944FF40050CDE90440029432
:1019D00001940394694607480794FFF749FC08B14E
:1019E000FEF72AFF0348FFF76BFD16B010BD00009D
:1019F000002C014078000020FEE7FEE770477047AA
:101A000070B5C0F30743074CC0F30722064D074EDD
:101A10000021C0B263546A547054491CC9B20829E9
:101A2000F8D370BD58000020500000206000002056
:101A3000082807D2044B0A0C1A54044B0A0A1A54F9
:101A4000034A115470470000580000205000002045
:101A500060000020FFF7F8B830B58FB02821684645
:101A6000FEF779FB14210AA8FEF775FB0225012079
:101A7000049000951020059000244FF42010CDE92B
:101A8000084007956846FFF743FA08B172B6FEE7CB
:101A90000F20CDE90A054FF48060CDE90C4001210B
:101AA0000AA80E94FFF768F9002801D072B6FEE785
:101AB0000FB030BD70470000F0B50268164B174CF0
:101AC000174D4FF08047984205D0B84203D0A0424E
:101AD00001D0A84203D122F070064A6832439842EE
:101AE00005D0B84203D0A04201D0A84203D122F4CD
:101AF0004074CA6822434C6922F08002224302608B
:101B00008A68C2620A688262984201D109690163E7
:101B100001214161F0BD0000002C014000040040A3
:101B20000008004010B501F01F030121046A99402C
:101B30008C430462016A9A401143016210BD10B5E2
:101B4000446A0121626A824205D121778069F8B92D
:101B500084F83E101CE0A26A824206D1022222775B
:101B60008069A8B984F83F1012E0E26A824206D187
:101B700004222277806958B984F8401008E0226B6B
:101B8000824205D108222277806908B984F8411081
:101B90002046FFF74DFD0020207710BD10B5446AA8
:101BA000616A814201D101200DE0A16A814201D127
:101BB000022008E0E16A814201D1042003E0216BA8
:101BC000814201D1082020772046FFF737FD002011
:101BD000207710BD10B5446A0121626A824203D1A8
:101BE000217784F83E1019E0A26A824204D10220D3
:101BF000207784F83F1011E0E26A824204D1042089
:101C0000207784F8401009E0226B824204D108203A
:101C1000207784F8411001E084F83D102046FFF75A
:101C20004EFC0020207710BD10B5846842EA0322E4
:101C300024F47F440A432243826010BD826822F06C
:101C400070020A4342F007018160704730B5026AB2
:101C500022F001020262026A4368846924F073057B
:101C60000C682C4322F002058A682A430A4DA842D8
:101C70000BD122F00805CA6823F440732A434D694A
:101C800022F004021D438B692B4343608461496841
:101C90004163026230BD0000002C014030B5026A91
:101CA00022F010020262026A436884690D6824F41B
:101CB000E64444EA05248D6822F0200242EA051237
:101CC0000B4DA8420ED1CD6822F0800242EA0512E7
:101CD0004D6923F4406343EA85038D6922F0400295
:101CE00043EA85034360846149688163026230BDD1
:101CF000002C014030B5026A22F480720262036A4D
:101D00004268C46923F4007324F073050C682C4303
:101D10008D6843EA05230C4DA8420ED1CD6823F40B
:101D2000006343EA05234D6922F4405242EA05125A
:101D30008D6923F4806342EA05124260C4614968F8
:101D4000C163036230BD0000002C014030B5026A5F
:101D500022F480520262046A4268C3690D6823F467
:101D6000E64343EA05238D6824F4005444EA05342D
:101D7000064DA84204D14D6922F4804242EA851200
:101D80004260C36149680164046230BD002C0140B7
:101D900010B5036A046A24F001040462846924F023
:101DA000F00444EA021423F00A020A438461026246
:101DB00010BD10B5036A23F0100303628369046A3F
:101DC00023F4704343EA023224F0A00343EA0111F2
:101DD0008261016210BDFEE7002210B51146104677
:101DE00000F0BEFDBDE8104000F042B9194910B541
:101DF00008700C2824D2DFE800F023060A0D101327
:101E000016191C1F061F0A2000F086FD1AE000F0BC
:101E100023F817E000F048F814E000F085F811E02E
:101E200000F0C2F80EE000F0CBF80BE000F0D4F8C0
:101E300008E000F0DDF805E0142000F043FD01E0CB
:101E40000220087000F014F9BDE810400A2000F0EC
:101E5000E5BC00002000002010B5FEF7EFFE114C9D
:101E6000A17A01B9E0610121A172E169884217D923
:101E7000A230E061607A401CC0B26072082801D3D1
:101E8000002060720020FFF7BBFD01220021282006
:101E9000FEF7B1FC0146607ABDE81040FFF7C8BD0F
:101EA00010BD00002000002010B5FEF7C7FE1A4943
:101EB0000A7B02B9086201220A730A6A904229D990
:101EC0000A300862C87A421CCA72642801D900200C
:101ED000C872C87AFEF759FB1049FEF747F9104956
:101EE000FEF776F9FEF780FB00F056FD0D4C002260
:101EF0002346FEF752FA00222346FEF7A7F9FEF723
:101F00005AFB0022C0B21146FEF775FCBDE8104036
:101F1000FFF776BD10BD000020000020780FC940FB
:101F20000000C8420000494010B5FEF787FE1A497C
:101F30008A7B02B9486201228A734A6A904229D98F
:101F40000A304862487B421C4A73642801D9002049
:101F50004873487BFEF719FB1049FEF707F9104953
:101F6000FEF736F9FEF740FB00F016FD0D4C00229F
:101F70002346FEF712FA00222346FEF767F9FEF722
:101F80001AFBC0B202460021FEF735FCBDE8104046
:101F9000FFF736BD10BD000020000020780FC940BB
:101FA0000000C8420000494010B525220021282029
:101FB000FEF721FCFFF724FDBDE8104000F058B803
:101FC00010B5002236213720FEF715FCFFF718FD6B
:101FD000BDE8104000F04CB810B501224021104679
:101FE000FEF709FCFFF70CFDBDE8104000F040B81B
:101FF00010B5FEF723FE1A490A7C02B98862012255
:102000000A748A6A904229D90A308862C87B421CC5
:10201000CA73642801D90020C873C87BFEF7B5FADB
:102020001049FEF7A3F81049FEF7D2F8FEF7DCFAE4
:1020300000F0B2FC0D4C00222346FEF7AEF9002260
:102040002346FEF703F9FEF7B6FAC1B200221046A6
:10205000FEF7D1FBBDE81040FFF7D2BC10BD000079
:1020600020000020780FC9400000C842000049400D
:102070002DE9F05FDFF880A0204F00200AF1080B67
:102080004FF080090AF1100E1AF800501BF80040BA
:102090001EF80030002100EB400C00BF29FA01F2CD
:1020A000154202D04FF0260801E04FF0130801EB73
:1020B000CC0607EB46061442A6F8068002D04FF085
:1020C000260801E04FF01308A6F81680134201D04D
:1020D000262200E01322491C49B2F2840829DDDBE4
:1020E000401C40B20828CFDBBDE8F05FC423034AA0
:1020F00000210348FFF7F2BA50000020040100203D
:1021000078000020C0F1FF00552809D200EB400103
:10211000A0EB8000401EC9B2C0B241EA0040704747
:10212000AA280AD25538C0B200EB4001A0EB8000CB
:10213000C9B2FF3061F31F207047AA3800EB40019D
:102140000906090AA0EB8000401EC0B241EA002047
:102150007047490050EAC12018BF04204A0D18BF3B
:1021600040F0010040F2FF72B2EB515F08BF40F057
:102170000200012808BF052070470907090E002842
:1021800004DB00F1E02080F80014704700F00F003D
:1021900000F1E02080F8141D704700002DE9F74F92
:1021A000144694B00021C4E902111599079121F059
:1021B0000045C9498D4206DC1599C4E9000117B0F4
:1021C0000020BDE8F08FC549DFF814A3A9423CDD2B
:1021D0000799C44E0029C44FC44A1599534619DDC6
:1021E000FEF7D5F8554506D0C14AC24BFEF7CFF8E9
:1021F000C4E900010AE04FF0D352BE4BFEF7C7F826
:1022000032463B46FEF7C3F8C4E9000117B001208F
:10221000BDE8F08FFEF71AF8554506D0B44AB54B25
:10222000FEF714F8C4E900010AE04FF0D352B14BB5
:10223000FEF70CF832463B46FEF708F8C4E9000109
:1022400017B04FF0FF30BDE8F08FAB49A9421599A8
:1022500078DB21F0004183468846A84AA84BFEF768
:102260009CF80022A74BFDF7F1FFFEF7A4FA0990B6
:10227000FEF790F906460F469C4A5346FEF78DF846
:1022800043465A46FEF786F880468A46984A994B56
:1022900030463946FEF781F82A0D01250B92424659
:1022A0005346FEF777F8032DC4E9000139D00B98A7
:1022B000C1F30A51401A05EB45111139814230DA58
:1022C0009148C346784400EB0510CDF80CA00C9063
:1022D000D0E9002330463946FEF75FF802460B4648
:1022E0000491069058460399FEF751F880468A46B5
:1022F00002460B4658460399FEF749F8049B069A96
:10230000FEF745F883460C9803913946D0E902233D
:102310003046FEF742F85A46039BFEF738F86D1C2C
:10232000BDE707980028A2BF099817B0BDE8F08F55
:10233000616881F000416160099817B04042BDE8D2
:10234000F08FFFE784461598C1F31301C0F30A50DC
:10235000A0F2F5304FEA601800F01F06C6F1200029
:10236000139000200690079041F4801E05206D46D2
:1023700076B1664A08EB00017A4452F8213002EB4C
:102380008101B3404A68139922FA01F1194305E02B
:102390005F4908EB0002794451F82210A1FB0E2797
:1023A000A1FB0C131A449A4234BF0123002303EB10
:1023B000070A05EB8003D3E901B70F448F4234BF0E
:1023C0000121002193448B4411B1934502D903E0CC
:1023D000934501D2012100E00021C3E901B7514436
:1023E00045F82010011EA0F10100C1DC0298059FF4
:1023F00000F10050800F12900298DDE90356800032
:10240000FEF7C8F8834628460D91FEF7C7F96FF02E
:102410001D02FEF7A3F8CDE90E013046FEF7BEF926
:102420006FF03D02FEF79AF880468A463846FEF77E
:10243000B5F96FF05D02FEF791F807464246534644
:102440001191FDF703FFDDE90E23FDF7FFFE5A466C
:102450000D9BFDF7FBFE00250E465A4628460D9BB8
:10246000FDF795FFDDE90E23FDF791FF4246534648
:10247000FDF78DFF3A46119BFDF78CFFDFF898A022
:10248000244A5346FDF789FF07468846234A244BD2
:1024900031462846FDF781FF3A464346FDF7D6FE12
:1024A000074688464FF0A842534631462846FDF776
:1024B00074FF3A464346FDF7C9FE159A12F0004FE5
:1024C00004D0129A81F0004152421292C4E90001F4
:1024D000129817B0BDE8F08FFB21E93F7CD902408C
:1024E000FB21F93F7370032E8A19A33B000040546F
:1024F0003163621A61B4D03DFB21394183C8C96D93
:10250000305FE43F0000E03FB00700002C07000010
:102510000E070000182D4454FB21F93D3326A61167
:10252000460B113C2DE9FF4D21F0004807460C46B3
:10253000B8F1795F08DAFEF73EF9002801BF002004
:10254000324904B0BDE8F08D3A462346104619469C
:10255000FDF723FF054602462D480E460B46062191
:10256000784400F05DF82A463346FDF716FFDDE9B2
:10257000022382468B4638462146FDF70EFF04466D
:102580000F4652465B4628463146FDF706FF224677
:102590003B46FDF7FCFE07468A464FF0FF322846D1
:1025A0003146FDF7DBFF1B4A90450ADA3A465346AF
:1025B000FDF7EDFE04B00022BDE8F04D134BFDF732
:1025C000E9BE154A4245A8BFA8F500154FF0000422
:1025D000B8BF124D22462B46FDF7D9FE0646884667
:1025E00022462B4600200949FDF7D1FE04460D4640
:1025F0003A46534630464146FDF7C9FE04B02246EE
:102600002B46BDE8F04DFDF7C5BE00000000F03FD1
:10261000E40400003333D33F0000E93F0000D23F21
:102620002DE9F0414F1E00EBC7010446D1E900013E
:1026300015461E4637F006020DD02A463346FDF7F2
:10264000ACFE7F1E04EBC703D3E90023FDF7FEFDBC
:1026500037F00602F1D1022F25D0042F13D0062F18
:1026600018BFBDE8F0812A463346FDF796FED4E94F
:102670000A23FDF7EBFD2A463346FDF78EFED4E92B
:102680000823FDF7E3FD2A463346FDF786FED4E92D
:102690000623FDF7DBFD2A463346FDF77EFED4E92F
:1026A0000423FDF7D3FD2A463346FDF776FED4E931
:1026B0000223FDF7CBFD2A463346FDF76EFED4E933
:1026C0000023BDE8F041FDF7C1BD00002DE9FF4D3D
:1026D000054621F0004084B00C46B0F1795F0BDA7A
:1026E0002846FFF736FD042808BF00F06FF828469B
:1026F00008B02146BDE8F08D2A460B461046FDF78E
:102700004CFE06460F462A462346FDF746FE804607
:1027100026488A4632463B4605217844FFF780FF2B
:1027200083461098029160B3214A224B404651469D
:10273000FDF733FECDE900015A4640465146029B63
:10274000FDF72BFE82468846DDE906014FF0FF3299
:10275000FDF704FF52464346FDF719FE32463B465D
:10276000FDF71BFEDDE90623FDF711FEDDE9002381
:10277000FDF70DFE08B02A462346BDE8F04DFDF7F3
:1027800009BE0B465A4630463946FDF706FE084A52
:10279000084BFDF75BFD42465346FDF7FEFD08B0D2
:1027A0002A462346BDE8F04DFDF750BD2204000047
:1027B000495555555555C5BF0122FDF7CFBE0022DD
:1027C000134610461146FDF75ABE0000024A00208B
:1027D0001107FDF7C3BE000001FDFFFF02E008C8BE
:1027E000121F08C1002AFAD170477047002001E08B
:1027F00001C1121F002AFBD1704700000149086087
:10280000704700007400002010B504460420FEF755
:102810000FFD0148046010BD7000002070B5054632
:1028200000244FF47A7603E0304600F005F8641C8B
:10283000AC42F9D370BD000070B54FF0E024002227
:1028400065690949A36909684843A1699942FCD0AF
:1028500002D2A3EB010302E0A5EB010633441A44C4
:102860000B468242F1D370BD70000020FEF7F4F9F0
:10287000FFF7F2F84820FFF7C7FFFFF741F8FFF72F
:1028800029F8FFF753F80E491E2009684863042110
:102890000B48FEF7D5FEFFF79FFA4FF47A70FFF76B
:1028A000BDFF4FF4487601240025E0B2FFF79EFA01
:1028B0006D1CB542F9DB641C0C2CF5DBF3E7000062
:1028C0007800002070B50446FEF7B8F9114A536845
:1028D000A34208D20519002141EB01065D404E409C
:1028E000354302D170BD9842FCD911782044491C6F
:1028F000CDB21570002450606019C0B2FFF702FC21
:1029000001462046FFF794F8641CA4B2082CF3D3C8
:1029100070BD00001000002070B50446FEF78EF96F
:102920000E498A7802B9886001228A708A689042CA
:1029300013D94A782044521CD5B24D7000248860C7
:1029400005EB4410C0B2FFF7DDFB01462046FFF760
:102950006FF8641CA4B2082CF2D370BD10000020E4
:10296000F0B50023094C0A4D0A4E1F46E754EF54B8
:10297000F7545B1CDBB2082BF8D30023E054E95476
:10298000F2545B1CDBB2082BF8D3F0BD58000020DA
:10299000500000206000002000B5254B21F00042CF
:1029A00087B09A4203DC0022134600922BE0214BB1
:1029B0009A4208D140B94FF00100FFF71FFFFFF71F
:1029C000FEFE07B000BD03DBFFF7F6FE07B000BD5B
:1029D00002AAFFF7E3FB10F003014FF001000DD056
:1029E000012914D002291AD00DF1080C9CE80F001F
:1029F000FFF798FD07B081F0004100BD0DF1080C14
:102A000000909CE80F00FFF761FE07B000BD0DF1DC
:102A1000080C9CE80F00FFF785FD07B000BD0DF125
:102A2000080C00909CE80F00FFF750FEE2E7000062
:102A3000FB21E93F0000F07F0000000000000000E3
:102A400001020304060708094C5555555555A53F85
:102A50007751C1166CC156BF9015CB19A001FA3E33
:102A6000AD529C804F7E92BEC4B1B4BD9EEE213E5D
:102A7000D43888BEE9FAA8BD00004054FB21F93FD4
:102A80003163621A61B4D03D0000601A61B4D03D78
:102A90007370032E8A19A33B0000002E8A19A33BF2
:102AA000C14920259A837B39000000000000000006
:102AB0006E83F9A22915444ED15727FCC0DD34F5A9
:102AC000999562DB4190433CAB6351FE61C5BBDE2F
:102AD0003A6E24B7E0D24D42EA2E49061C92D10943
:102AE0001CEB1DFE3EA729B1F53582E88444BB2EC0
:102AF00026709CE9417E5FB439D69139F43953830D
:102B00008B5F849C3B28F9BDFF97F81F0F9805DE6B
:102B10008B112FEF1F6D0A5ACF7E366DB709CB2769
:102B2000663F464F2DEA5F9EC7BA27757BF1E5EBFE
:102B3000F739073DEA92528AB15FFB6B085D8D1F42
:102B4000A6F810111111813FD561C119A0012ABF4A
:102B50007DFEB157E31DC73EEB9C2B8AE6E55ABECE
:102B60007CD5CF5A3AD9E53D882B000800000020DB
:102B700078000000DC270008002C00087800002006
:102B800018060000EC2700080100000010000000FB
:102B9000000000000024F40000000000000000001D
:102BA0000000000000000000020000000000000023
:102BB0000000000000000000000000000000000015
:102BC0000000000000000000000000000000000005
:102BD00000000000000000000000000000000000F5
:102BE00000000000000000000000000000000000E5
:102BF00000000000000000FF0000000000000000D6
:04000005080000ED02
:00000001FF
