:020000040800F2
:1000000070080020C5010008CF1B0008B9190008BE
:10001000CD1B0008910700083B20000800000000ED
:10002000000000000000000000000000D31B0008DA
:100030005908000800000000D11B0008291C000816
:10004000DF010008DF010008DF010008DF01000810
:10005000DF010008DF010008DF010008DF01000800
:10006000DF010008DF010008DF010008DF010008F0
:10007000DF010008DF010008DF010008DF010008E0
:10008000DF010008DF010008DF010008DF010008D0
:10009000DF010008DF010008DF010008DF010008C0
:1000A000DF010008DF010008DF010008DF010008B0
:1000B000DF010008DF010008DF010008DF010008A0
:1000C000DF010008DF010008DF010008DF01000890
:1000D000DF010008DF010008DF010008DF01000880
:1000E000DF010008DF010008DF010008DF01000870
:1000F000DF010008DF010008DF010008DF01000860
:10010000DF010008DF010008DF010008DF0100084F
:10011000DF010008DF010008DF010008DF0100083F
:10012000DF0100089D070008DF010008A90700089B
:10013000DF010008DF010008DF010008DF0100081F
:10014000DF010008DF010008DF010008DF0100080F
:10015000DF010008DF010008DF010008DF010008FF
:10016000DF010008DF010008DF010008DF010008EF
:10017000DF010008DF010008DF01000800000000C7
:10018000DF010008DF010008DF010008DF010008CF
:10019000DF010008DF010008DF010008DF010008BF
:1001A000DF010008DF010008DF010008DFF810D0E0
:1001B00000F0B0FA00480047BD2D0008AFF3008002
:1001C000700800200648804706480047FEE7FEE723
:1001D000FEE7FEE7FEE7FEE7FEE7FEE7FEE7FEE7F7
:1001E000C11C0008AD0100082DE9F05F05460020A4
:1001F00092469B4688460646814640241BE0284698
:1002000041464746224600F006FA53465A46C01A6F
:10021000914110D311461846224600F0EDF92D1AEF
:1002200067EB01084F4622460120002100F0E4F967
:1002300017EB00094E41201EA4F10104DFDC484603
:1002400031462A464346BDE8F09FD2B201E000F8AD
:10025000012B491EFBD270470022F6E710B513466A
:100260000A4604461946FFF7F0FF204610BD2DE967
:10027000FE4F804681EA0300C00F0C46009021F03B
:10028000004123F00045B8EB0200A94105D24046E9
:10029000214690461C460B46024623F00040104380
:1002A00047D0270DC7F30A00C3F30A510290401A42
:1002B000019040286BDAC3F3130040F4801B0098D0
:1002C000924620B10023D2EB030A63EB0B0B01989B
:1002D0005946C0F14002504600F08EF906460D46E0
:1002E00050465946019A00F0A6F910EB080061410A
:1002F000002487EA115284EAE7731A4340D0009A37
:1003000062B3019A012A4FEA075215DC001B61EB28
:1003100002014FF0004202EA0752CDE90042001C00
:1003200041F5801132462B4600F0A6F903B0BDE836
:10033000F08F40462146F9E7001B61EB0201001CEB
:1003400041F5801300185B412018A2F5001747EB18
:10035000030140EAD570B6196D4111E06D084FEA0E
:10036000360645EAC0754FEA0752001B61EB0201F1
:10037000001C41F5801149084FEA30000019514135
:1003800032462B4603B0BDE8F04F00F066B9009846
:10039000012240000023D0EB020263EBE0730098DF
:1003A00021464FEAE074B8EB000061EB0401E9E795
:1003B00083F000435BE781F0004158E72DE9FE4FF1
:1003C00081EA030404F0004421F0004100944FF05E
:1003D000000B23F0004350EA01045ED052EA03040C
:1003E0005BD0C3F30A54C1F30A552C44A4F2F3348E
:1003F0000194A0FB0254C1F3130141F48011C3F333
:10040000130343F4801301FB024400FB034E840AF0
:10041000970A44EA815447EA8357A4FB0768029588
:100420008D0A05FB07854FEA932C04FB0C54270526
:10043000029D4FEA065847EA1637B5EB08056EEB02
:10044000070C870E920E47EA811742EA8312A7FB38
:100450000201B6EB0B0164EB00042B0D43EA0C33F5
:100460005E1844EB1C50DA465146E7FB0201C5F327
:1004700013044FEA0B3343EA14534FEA0432019C4E
:1004800043EA0603A4F10C040294009CCDE900B4F5
:1004900000F0F2F803B0BDE8F08F00200146F9E764
:1004A0002DE9F04D81EA030404F0004B21F00045F2
:1004B00014464FF0000A23F0004150EA050220D014
:1004C00054EA01021DD0C5F30A570246C5F31303CF
:1004D000C1F31300C1F30A5640F4801543F48013AE
:1004E000A7EB0608101BD64608F2FD3873EB050093
:1004F00002D308F1010801E092185B41B8F1000F46
:1005000003DA00200146BDE8F08D00204FF4801191
:10051000064684460EE0171B73EB050705D3121B36
:1005200063EB050306434CEA010C49084FEA30002F
:1005300092185B4150EA0107EDD152EA030012D054
:1005400082EA040083EA0501084305D0101BAB4191
:1005500006D20122002306E000224FF0004302E011
:100560006FF0010253101AEB06004CEB085110EB30
:100570000A0041EB0B01BDE8F04D00F06EB80EB57E
:10058000C10F80EAE0700844CA07002140F23343FB
:100590008DE80E000A460B4600F06EF803B000BD71
:1005A000C1F30A5210B5C1F3130140F2FF3341F415
:1005B00080119A4201DA002010BD40F233439A4282
:1005C000A2F2334203DC524200F025F810BD904005
:1005D00010BD00F0004230F000400AD0C10D01F51E
:1005E0006071C0F3160042EA0151C208400711438E
:1005F0007047002001467047202A04DB203A00FAA9
:1006000002F1002070479140C2F1200320FA03F369
:10061000194390407047202A04DB203A21FA02F067
:100620000021704721FA02F3D040C2F1200291402C
:10063000084319467047202A06DBCB17203A41FAB7
:1006400002F043EAE07306E041FA02F3D040C2F15F
:100650002002914008431946704710B5141E73F1EB
:10066000000408DA401C41F1000192185B411A4372
:1006700001D120F0010010BD2DE9F04D92469B46BE
:1006800011B1B1FA81F202E0B0FA80F22032904664
:10069000FFF7B2FF04460F4640EA0A0041EA0B01A9
:1006A00053465A46084313D0114653EA010019D065
:1006B000C8F140025046FFF7AEFF05460E465046D1
:1006C00059464246FFF798FF084305D0012004E051
:1006D00020463946BDE8F08D0020054346EAE07625
:1006E0002C4337430A986305E40AA0EB0800002274
:1006F000FD0A44EA47540A3002D500200146E9E7E2
:10070000010510196941DDE9084500196941BDE895
:10071000F04DA2E7064C074D06E0E06840F001030B
:1007200094E8070098471034AC42F6D3FFF742FD37
:1007300020300008403000080EB540F233410291ED
:100740000021CDE900110A460B46FFF795FF03B0E3
:1007500000BD70B5C1F30A5201F000450024C1F399
:10076000130140F2FF3341F480119A4201DA002074
:1007700070BD40F233439A42A2F2334203DC52424C
:10078000FFF749FF00E090402C43F1D0404270BD9C
:10079000FEE7000440EA012010437047014800F0E2
:1007A0005FB80000B0030020014800F059B8000015
:1007B0001004002001681823CAB2103AB2FBF3F209
:1007C000054B6FF30901032A9B5CC36500D9091D22
:1007D0008165084670470000E82E000810B5014604
:1007E00000208B698A6A4FF0C07453B1B3F5005F83
:1007F00015D072B1012A0CD0022A0AD0032A09D1DD
:1008000004E01AB1012A06D0022A03D1C96AC9013B
:1008100000D5012010BDC96AA142FAD010BD002A3E
:10082000F7D0012AF2D0022AF3D0032AF3D010BD68
:1008300030B50468256825F4802525600468636068
:100840008368402B036803D099600068C26030BDA4
:100850009A600068C16030BD704772B6FEE7000064
:100860002DE9F84304464FF00009CDF800906348A5
:100870004FF41651A56D0068B0FBF1F72E6894F89F
:100880005C10082000FA01F131420FD021680A689B
:1008900052070BD50A6822F004020A6094F85C1033
:1008A0008840A860606D40F00100606594F85C10BD
:1008B0004FF0010808FA01F0304208D02168496978
:1008C000090604D5A860606D40F00200606594F8E8
:1008D0005C1004208840304208D0216809688907EC
:1008E00004D5A860606D40F00400606594F85C1069
:1008F00010208840304218D021680968090714D5B3
:10090000A86020680168490304D50068000308D581
:10091000A16C07E00168C90503D4016821F0080152
:100920000160216C09B12046884794F85C102020B2
:100930008840304231D021680968C9062DD5A860A9
:1009400094F8350005282068016806D0490347D58A
:10095000006800031DD4616C1CE021F016010160E9
:100960002068416921F080014161206C08B9A06CC8
:1009700020B12068016821F00801016094F85C1042
:100980003F208840A86084F8349084F83580216D39
:100990001FE0E16B09B120468847606D00282BD02D
:1009A000606DC00714D0052084F835002068016808
:1009B00021F0010101600098401C0090B84203D86A
:1009C00020680068C007F6D184F8349084F8358038
:1009D000E16C002910D001B02046BDE8F043084783
:1009E0000168C905D5D4016821F01001016084F8BF
:1009F000349084F83580CCE7BDE8F88354000020BB
:100A00002DE9F041044600F099F906465CB1002555
:100A100084F83450022084F835002068016821F001
:100A2000010101600DE00120BDE8F08100F086F9D0
:100A3000801B052805D920206065032084F8350037
:100A4000F2E720680068C007F0D1226811682048EA
:100A50000140D4E901031843D4E903363343184372
:100A600063691843A3691843E3691843236A184369
:100A70000843616A042903D1D4E90B1319430843DD
:100A8000106020684069666A20F0070130460E4316
:100A9000012704280CD1A06A0643E06A40B1204631
:100AA000FFF79CFE20B14020606584F83570BAE7FE
:100AB000206846612046FFF77DFE94F85C203F21C8
:100AC00091408160656584F835700020ACE70000D6
:100AD0003F8010F02DE9F0410446866D90F8340017
:100AE000002501280DD0012084F8340094F83570D9
:100AF0000020012F07D084F8340002252846BDE8E5
:100B0000F0810220FBE7022784F8357060652046FB
:100B1000FFF78EFE94F85C103F208840B06020689C
:100B2000016841F016010160206C20B12068016865
:100B300041F0080101602068016841F00101016095
:100B4000DCE7000070B5044600F0F8F80546601CCC
:100B500002D004480078044400F0F0F8401BA042A2
:100B6000FAD370BD480000202DE9F84F00224FF065
:100B7000010803254FF00F0E0B6808FA02F423401A
:100B8000A3426ED14E68012E05D0022E03D0112E45
:100B900001D0122E12D186684FEA420C05FA0CF7EA
:100BA000BE43CF6807FA0CF7374387604668A64311
:100BB0000C79C4F30014944034434460C668570071
:100BC00005FA07FC8C6826EA0C06BC403443C46076
:100BD0004C68022C01D0122C13D1D40800EB8404F1
:100BE000A346D4F8209054074FEAD46A0EFA0AF6C6
:100BF00029EA06090E6906FA0AF646EA0906CBF85A
:100C0000206004680E7924EA0C0406F00306BE4056
:100C1000264306604C68E4006FD53B4C266846F4DA
:100C200080462660246822F0030604F48044009481
:100C3000364C3444A446D4F808489607360F0EFACA
:100C400006F7BC43324FB84201D100272EE0314FA6
:100C5000B84201D1012729E02F4FB84202D1022723
:100C600024E04AE02D4FB84201D103271EE02C4F6B
:100C7000B84201D1042719E02A4FB84201D1052713
:100C800014E0294FB84201D106270FE0274FB842A0
:100C900001D107270AE0264FB84201D1082705E015
:100CA000244FB84201D1092700E00A27B740274363
:100CB000CCF80878204E34684F689C43FF0300D579
:100CC0001C4334601C4E361D34684F689C43BF0380
:100CD00000D51C433460184E083634684F689C4376
:100CE000FF0200D51C433460134E0C3634684F6845
:100CF0009C43BF0200D51C433460521C102AFFF4F1
:100D00003BAFBDE8F88F000044380240003001409E
:100D1000000002400004024000080240000C0240B3
:100D2000001002400014024000180240001C024063
:100D30000020024000240240003C0140014880683D
:100D40007047000048000020024881680278114482
:100D500081607047480000200B4810B5016841F4DD
:100D600000710160016841F480610160016841F433
:100D700080710160032000F06FF8002000F006F899
:100D800000F024F8002010BD003C024070B50D4D6D
:100D900004464FF47A712878B1FBF0F00A490968EB
:100DA000B1FBF0F000F0E2FA48B9102C07D20022B3
:100DB0002146501E00F030F800206C6070BD01200C
:100DC00070BD000048000020540000200A4808B50B
:100DD000016841F480410160006800F480400090A7
:100DE0000548001F016841F080510160006800F073
:100DF0008050009008BD000044380240002809DB04
:100E000000F01F02012191404009800000F1E02024
:100E1000C0F8001170470000F0B40E4B1B680C4680
:100E2000C3F30223C3F10705042D00D90425191DBE
:100E3000072901D2002300E0DB1E012606FA05F196
:100E4000491E214099409E40761E16403143F0BC19
:100E500001F009BB0CED00E0064900F0070208684C
:100E60004FF6FF03184040EA0220034A104308608F
:100E7000704700000CED00E00000FA052DE9F04796
:100E80000E46050065D0DFF81481D8F80000F7B2EF
:100E900000F00F00B04207D288F80070D8F80000C8
:100EA00000F00F00B04254D128683D4C810712D5A4
:100EB000400703D5206840F4E05020602878000700
:100EC00003D5206840F4604020602068A96820F0C5
:100ED000F000084320602878C0072DD030496868AA
:100EE0000839012812D0022813D0032811D009682C
:100EF000890700292DDA216821F0030101432160CF
:100F0000FFF71CFF814641F2883A0EE00968890329
:100F1000EFE709688901ECE7FFF710FFA0EB090193
:100F2000514502D90320BDE8F0872068696800F0C8
:100F30000C00B0EB810FEFD1D8F80010404601F063
:100F40000F01B14207D90770006800F00F00B042EE
:100F500001D00120E7E72878400705D52068E96837
:100F600020F4E050084320602878000706D5206868
:100F7000296920F4604040EAC100206000F018F8C0
:100F80002168084AC1F30311515CC8400649086052
:100F900006480068FFF7FAFE0020C4E7003C024064
:100FA00008380240F02E0008540000204C000020B9
:100FB000154810B5006810F00C02144813D0411009
:100FC000042A0FD0082A0ED10F4C241F2268236850
:100FD00002F03F025B0207D52068C0F38810A0FB37
:100FE000010106E0084610BD2168C1F38811A1FB8C
:100FF00000010023FFF7F8F82168C1F30141491C03
:101000004900B0FBF1F010BD083802400024F400A4
:101010002DE9F84F04006ED02078DFF83C93C0072C
:10102000A9F104054AD009F104000168C1F3810166
:10103000012908D00068C0F3810002280AD1D9F83C
:101040000000400206D52868800337D56068002874
:10105000E1D033E06068B0F5803F10D0B0F5A02F4C
:10106000286810D020F480302860286820F4802080
:1010700028606068A8B1FFF761FE06460DE02868A9
:1010800040F48030F4E740F480202860F7E700BFA8
:10109000FFF754FE801B642873D828688003F7D5B7
:1010A0000CE0FFF74BFE064605E000BFFFF746FEEB
:1010B000801B6428F0D828688003F7D42078DFF8F4
:1010C0009C8280074FF0000A3ED5A348001D0168AE
:1010D00011F00C0F08D00068C0F3810002280BD17A
:1010E000D9F80000400207D42868800716D5E068C8
:1010F000012800D112E02BE1E068B8B10120C8F866
:101100000000FFF71BFE064605E000BFFFF716FED6
:10111000801B0228C0D828688007F7D52868216975
:1011200020F0F80040EAC10028600DE0C8F800A0F7
:10113000FFF704FE064604E0FFF700FE801B0228CE
:101140001FD828688007F7D42078000722D5824E60
:1011500083486169703671B101210160FFF7EEFDCE
:10116000074604E0FFF7EAFDC01B022809D83068F3
:101170008007F7D50EE0C0F800A0FFF7DFFD0746B7
:1011800005E082E0FFF7DAFDC01B02287DD8306859
:101190008007F7D42078400768D5DFF8BCB1002776
:1011A0000BF13C0BDBF80000C0000BD4DBF80010A7
:1011B00041F08051CBF80010DBF80000012700F06F
:1011C00080500090674E3068C00510D4306840F4FD
:1011D00080703060FFF7B2FD009005E0FFF7AEFDD4
:1011E0000099401A022850D83068C005F6D55A4EEA
:1011F000A0686C3601280FD00528306810D020F088
:1012000001003060306820F004003060A068B8B1A0
:10121000FFF794FD00900FE0306840F00100F4E724
:1012200040F004003060F7E7FFF788FD0099411AAD
:1012300041F28830814266D830688007F4D50EE0EC
:10124000FFF77CFD009007E0FFF778FD0099411A59
:1012500041F28830814256D830688007F4D42FB1EB
:10126000DBF8001021F08051CBF80010A069C8B362
:101270003949091D0968C1F3810102294AD00228B0
:10128000504607D0C8F8600000E03CE0FFF756FD8C
:1012900004463BE04746C8F86000FFF74FFD0646AE
:1012A00005E000BFFFF74AFD801B02282BD8286805
:1012B0008001F7D4D4E907010843A16A2A4A490802
:1012C00002EB0141626A41EA8211084394F82C1052
:1012D00040EA0161C9F8001001203866FFF72EFDD1
:1012E000044606E036E000BFFFF728FD001B022899
:1012F00009D828688001F7D52CE000BFFFF71EFD54
:10130000001B022802D90320BDE8F88F286880015D
:10131000F4D41FE00128F7D0D9F80000E26900F406
:101320008001914214D1226A00F03F0191420FD115
:1013300047F6C071626A0140914209D1A26A00F485
:101340004031914204D1E16A00F07060884201D0DE
:101350000120D9E70020D7E70438024000004742C7
:10136000800E4742007000400000FFFF10B5401E95
:10137000B0F1807F01D3012010BD4FF0E024606107
:101380000F21601701F06FF80020A0610720206195
:10139000002010BD10B590F83C20012A22D0012277
:1013A00080F83C20CA688C6822F4407222434C6862
:1013B00022F4806222430C6822F4006222430C690A
:1013C00022F4805222434C6922F400522243C9691C
:1013D000002322F480420A4301684A6480F83C30CA
:1013E000002010BD022010BD70B590F83C20012AED
:1013F00032D0012480F83C40022280F83D2003686E
:101400005A689D6822F070060A6832435A60134B8E
:1014100002689A4214D0B2F1804F11D0104B9A4218
:101420000ED0104B9A420BD00F4B9A4208D00F4B64
:101430009A4205D00E4B9A4202D00E4B9A4204D1EA
:10144000496825F080031943916080F83D400021F0
:1014500080F83C10084670BD022070BD00000140BD
:101460000004004000080040000C0040000401405F
:10147000004001400018004010B5040003D094F86B
:101480003D0010B107E0012010BD002084F83C00B1
:10149000204600F00DF8022084F83D00211D206850
:1014A00000F01CFC012084F83D00002010BD00006D
:1014B000F8B50546D0F800C04020DFF8A0E00021D4
:1014C000274C02014301C6018702F4451ED1D4F81E
:1014D00000C04CF0010CC4F800C02468DFF884C0E0
:1014E00004F001040094204C44F804CB4FF0406C0D
:1014F00044F804CB4FC41C4864E807176162FFF747
:101500007FFA08B1FFF7A9F96C6225E0DFF85CE02B
:10151000F44522D1D4F800C04CF0020CC4F800C04D
:101520002468DFF840C004F0020400940E4C0CF173
:10153000300C603444F804CB4FF0606C44F804CBBA
:101540004FC4094864E8071760306162FFF758FA32
:1015500008B1FFF782F9AC62A563F8BD0000014055
:101560004438024028640240B003002000040140D7
:1015700070B5044690F83C00012817D0012584F886
:101580003C50022084F83D002068826822F07702F7
:1015900022F47F4282600868502830D00DDC202879
:1015A0004DD005DC98B310283BD148E0022070BD37
:1015B000302844D0402834D139E0602828D0702821
:1015C00006D0B0F5805F2CD0B0F5005F29D10AE0DD
:1015D000CB68D1E90121206800F037FC20688168E0
:1015E00041F0770109E0CB68D1E90121206800F0E2
:1015F0002CFC2068816841F48041816011E0CA6858
:101600004968206800F0F6FC5021206807E016E0E9
:10161000CA684968206800F0FEFC6021206800F07C
:101620001EFC84F83D50002084F83C0070BDCA6860
:101630004968206800F0DEFC40212068EFE722685E
:1016400001461046EBE7704710B586B004461421FA
:101650006846FEF701FE2368174C00211748022256
:10166000A34211D1036843F010030360006800F047
:101670001000059010020090CDE901210120CDE974
:10168000031069460E4813E00E4CA34212D10368C2
:1016900043F004030360006800F00400059080201C
:1016A0000090CDE901210320CDE9031069460648E9
:1016B000FFF75AFA06B010BD000001403038024072
:1016C00000100240000401400008024070B50446CA
:1016D00090F83C000D4601280DD0012684F83C60AE
:1016E000022084F83D0042B1042A18D0082A2AD0EA
:1016F0000C2A4DD139E0022070BD206800F0B8FB03
:101700002068816941F0080181612068816921F0C8
:1017100004018161206881692A69114311E0206810
:1017200000F0D6FB2068816941F400618161206886
:10173000816921F480618161206881692A6941EAB7
:101740000221816124E0206800F0F8FB2068C16973
:1017500041F00801C1612068C16921F00401C16143
:101760002068C1692A69114311E0206800F01AFC61
:101770002068C16941F40061C1612068C16921F438
:101780008061C1612068C1692A6941EA0221C161A1
:1017900084F83D60002084F83C0070BD10B5040062
:1017A00003D094F83D0010B107E0012010BD0020E7
:1017B00084F83C00204600F00CF8022084F83D003C
:1017C000211D206800F08AFA012084F83D000020E5
:1017D00010BD704710B50421044800F0BFF8BDE803
:1017E00010400021024800F0B9B80000700300204A
:1017F000300300207047000010B504460068012245
:1018000000F0D0FA0B492068884202D00A49884289
:1018100003D1416C41F4004141642068816801F0CA
:101820000701062903D0016841F001010160002091
:1018300010BD000000000140000401402DE9F0410E
:10184000044690F83D0017460D46022853D094F800
:101850003D00012805D10FB9002B6ED1022084F87C
:101860003D00394839493A4E35B1042D16D0082D7E
:1018700044D00C2D24D153E0626AD063606A0164C5
:10188000606A3946C6642268606A3432FFF722F91A
:1018900098BB2068C16841F4007110E0A26AD0636F
:1018A000A06A0164A06A3946C6642268A06A383218
:1018B000FFF710F908BB2068C16841F48061C1607E
:1018C00001222946206800F06DFA224920688842EA
:1018D00002D02149884203D1416C41F40041416466
:1018E0002068816801F00701062903D0016841F0F2
:1018F000010101600020BDE8F0811EE0E26AD063D2
:10190000E06A0164E06A3946C6642268E06A3C32F3
:10191000FFF7E0F888B92068C16841F40061CEE7BC
:10192000226BD063206B0164206B3946C664226849
:10193000206B4032FFF7CEF808B10120DBE72068CA
:10194000C16841F48051BAE7BF1D0008FD1D0008C1
:101950003B1E0008000001400004014010B5044691
:101960000068002200F01EFA114841F211122168AD
:101970009310814202D00F48814209D1086A104277
:1019800006D1086A184203D1486C20F4004048642C
:101990002068016A114206D1016A194203D1016827
:1019A00021F001010160012084F83D00002010BDFC
:1019B0000000014000040140FEE700000D4808B5AA
:1019C000016841F4800101600068002200F4800099
:1019D000009011463920FFF71FFA3920FFF70EFA61
:1019E000002211463B20FFF717FABDE808403B20D4
:1019F000FFF704BA30380240114808B5016841F0D9
:101A000080010160016801F080010091016841F0EE
:101A100010010160016801F010010091016841F0BE
:101A200004010160016801F004010091016841F0C6
:101A300001010160006800F00100009008BD000095
:101A40003038024010B596B000240F9410941194D1
:101A5000129413941C2108A81494FEF7FDFB202176
:101A60006846FEF7F9FB27482549C0E900143B21E9
:101A7000C0E90241046144618461FFF7FDFC08B1E3
:101A8000FEF7EBFE4FF480500F900FA91D48FFF7B3
:101A90006FFD08B1FEF7E1FE1A48FFF77FFE08B1BF
:101AA000FEF7DBFE139413A916481494FFF79CFC71
:101AB00008B1FEF7D2FE6020CDE908040A940B9429
:101AC0000C940D94002208A90E480E94FFF7FEFD19
:101AD00008B1FEF7C2FE00944FF40050CDE9044077
:101AE000029401940394694606480794FFF752FC58
:101AF00008B1FEF7B2FE0348FFF7A6FD16B010BD11
:101B0000000001403003002010B596B000240F946F
:101B100010941194129413941C2108A81494FEF7A5
:101B20009BFB20216846FEF797FB27482549C0E923
:101B300000143B21C0E90241046144618461FFF764
:101B40009BFC08B1FEF789FE4FF480500F900FA95F
:101B50001D48FFF70DFD08B1FEF77FFE1A48FFF79D
:101B60001DFE08B1FEF779FE139413A916481494CC
:101B7000FFF73AFC08B1FEF770FE6020CDE90804DB
:101B80000A940B940C940D94042208A90E480E9408
:101B9000FFF79CFD08B1FEF760FE00944FF4005083
:101BA000CDE90440029401940394694606480794E1
:101BB000FFF7F0FB08B1FEF750FE0348FFF744FDC6
:101BC00016B010BD0004014070030020FEE7FEE7E0
:101BD0007047704770B5C0F30743074CC0F3072246
:101BE000064D074E0021C0B263546A547054491C1C
:101BF000C9B20E29F8D370BD6A0000205C00002035
:101C0000780000200E2807D2044B0A0C1A54044B0B
:101C10000A0A1A54034A1154704700006A0000204F
:101C20005C00002078000020FFF78EB830B593B03C
:101C300030216846FEF710FB14210CA8FEF70CFBC0
:101C40001D480025016841F080510160006800F0E6
:101C5000805011901948016821F4404141F48041BD
:101C600001600068022400F44040119001200390BC
:101C700010200490009406940820CDE907506020BD
:101C8000CDE9090404200B906846FFF7C1F908B1BB
:101C900072B6FEE70F20CDE90C0480200E904001C3
:101CA000CDE90F0501210CA8FFF7E8F8002801D0C5
:101CB00072B6FEE713B030BD4038024000700040FD
:101CC0000548016841F47001016003494FF000606C
:101CD000803908607047000088ED00E0F0B50268C8
:101CE000254C264D264E274F274B4FF0804CA042C7
:101CF00009D0604507D0A84205D0B04203D0B84211
:101D000001D0984204D122F0700E4A6842EA0E02D5
:101D1000A0421BD0604519D0A84217D0B04215D0C0
:101D2000B84213D0984211D0184DA8420ED0184D89
:101D3000A8420BD0174DA84208D0174DA84205D095
:101D4000164DA84202D0164DA84203D122F4407588
:101D5000CA682A434D6922F080022A4302608A68D9
:101D6000C2620A688262A04201D0984201D1096928
:101D7000016301214161F0BD000001400004004009
:101D800000080040000C00400004014000400140F9
:101D9000004401400048014000180040001C004081
:101DA0000020004010B501F01F030121046A994092
:101DB0008C430462016A9A401143016210BD10B560
:101DC000846B012184F83D10626A824201D121773F
:101DD0000EE0A16A814201D1022008E0E16A81425D
:101DE00001D1042003E0216B814201D1082020773A
:101DF0002046FFF7EFFC0020207710BD10B5846B64
:101E0000012184F83D10626A824201D121770EE0FF
:101E1000A16A814201D1022008E0E16A814201D138
:101E2000042003E0216B814201D108202077204665
:101E3000FFF7E0FC0020207710BD10B5806B01217A
:101E400080F83D10FFF7FFFB10BD10B5846842EA33
:101E5000032224F47F440A432243826010BD826837
:101E600022F070020A4342F00701816070470000CF
:101E7000F0B5026A22F001020262036A42688469D4
:101E8000124E24F073050C682C4323F002058B6876
:101E90002B430D4DA84201D0B04205D123F00807D5
:101EA000CB683B4323F00403A84201D0B04205D1E4
:101EB0004D6922F4407215438A692A434260846165
:101EC000496841630362F0BD000001400004014025
:101ED000F0B5026A22F010020262026A4368846965
:101EE0000D6824F4E64444EA05248D6822F02002BB
:101EF00042EA05120F4D104EA84201D0B04206D161
:101F0000CF6822F0800242EA071222F04002A84283
:101F100001D0B04207D14D6923F4406343EA850301
:101F20008D6943EA85034360846149688163026285
:101F3000F0BD00000000014000040140F0B5026A5D
:101F400022F480720262026A4368C46922F4007259
:101F500024F073050C68124E2C438D6842EA05226A
:101F60000E4DA84201D0B04206D1CF6822F40062E3
:101F700042EA072222F48062A84201D0B04207D18F
:101F80004D6923F4405343EA05138D6943EA051371
:101F90004360C4614968C1630262F0BD0000014052
:101FA0000004014030B5026A22F480520262046AE1
:101FB0004268C3690D6823F4E64343EA05238D684C
:101FC00024F4005444EA0534084DA84202D0084DD8
:101FD000A84204D14D6922F4804242EA851242604F
:101FE000C36149680164046230BD00000000014023
:101FF0000004014010B5036A046A24F0010404627D
:10200000846924F0F00444EA021423F00A020A432B
:102010008461026210BD10B5036A23F010030362ED
:102020008369046A23F4704343EA023224F0A00374
:1020300043EA01118261016210BDFEE7002210B582
:102040001146104600F034FFBDE8104000F078B9AA
:10205000194910B508700C2824D2DFE800F02306D7
:102060000A0D101316191C1F061F0A2000F0F8FE97
:102070001AE000F023F817E000F048F814E000F050
:1020800097F811E000F0E6F80EE000F0EFF80BE052
:1020900000F0F8F808E000F001F905E0142000F085
:1020A000B5FE01E00220087000F04AF9BDE81040DA
:1020B0000A20FEF747BD00000000002010B5FEF723
:1020C0003DFE114CA17A01B9E0610121A172E169E3
:1020D000884217D9A230E061607A401CC0B26072B9
:1020E0000E2801D3002060720020FFF773FD01224B
:1020F00000212820FEF74DFB0146607ABDE8104024
:10210000FFF780BD10BD00000000002010B52DEDD0
:10211000028BFEF713FE21490A7B02B908620122F5
:102120000A730A6A904236D90A300862C87A421C99
:10213000CA72642801D90020C872C87ADFED180A73
:1021400000EE100A9FED171AB8EE400A60EE200A62
:1021500080EE810A10EE100AFEF73BFA41EC100BFC
:1021600000F092F99FED108B51EC100B53EC182BF3
:10217000FEF724F953EC182BFEF779F8FEF710FA66
:102180000022C0B21146FEF704FBBDEC028BBDE895
:102190001040FFF71FBDBDEC028B10BD00000020FA
:1021A000780FC9400000C84200000000000049400C
:1021B00010B52DED028BFEF7C1FD21498A7B02B9D6
:1021C000486201228A734A6A904236D90A304862CC
:1021D000487B421C4A73642801D900204873487B1D
:1021E000DFED180A00EE100A9FED171AB8EE400A4C
:1021F00060EE200A80EE810A10EE100AFEF7E9F97F
:1022000041EC100B00F040F99FED108B51EC100BDE
:1022100053EC182BFEF7D2F853EC182BFEF727F8E7
:10222000FEF7BEF9C0B202460021FEF7B2FABDECDD
:10223000028BBDE81040FFF7CDBCBDEC028B10BD9A
:1022400000000020780FC9400000C84200000000D4
:102250000000494010B5252200212820FEF799FAF8
:10226000FFF7B8FCBDE8104000F06AB810B50022D6
:1022700036213720FEF78DFAFFF7ACFCBDE81040A1
:1022800000F05EB810B5012240211046FEF781FA39
:10229000FFF7A0FCBDE8104000F052B810B52DEDDE
:1022A000028BFEF74BFD21490A7C02B988620122AC
:1022B0000A748A6A904236D90A308862C87B421C06
:1022C000CA73642801D90020C873C87BDFED180ADF
:1022D00000EE100A9FED171AB8EE400A60EE200AD1
:1022E00080EE810A10EE100AFEF773F941EC100B34
:1022F00000F0CAF89FED108B51EC100B53EC182B2B
:10230000FEF75CF853EC182BFDF7B1FFFEF748F928
:10231000C1B200221046FEF73CFABDEC028BBDE8CC
:102320001040FFF757BCBDEC028B10BD0000002031
:10233000780FC9400000C84200000000000049407A
:102340002DE9F05FDFF894A000200AF10E0B4FF0AA
:1023500080090AF11C0E0AF12A071AF800501BF82E
:1023600000401EF80030002100EB400C29FA01F279
:10237000154202D04FF0260801E04FF0130801EBA0
:10238000CC0607EB46061442A6F8068002D04FF0B2
:10239000260801E04FF01308A6F81680134201D07A
:1023A000262200E01322491C49B2F2840829DDDB11
:1023B000401C40B20E28D0DB084A4FF4AA742346D2
:1023C0002A3204210648FFF739FA2346BDE8F05FB8
:1023D000024A04482A320021FFF730BA5C0000208C
:1023E0007003002030030020C0F1FF00552809D2FF
:1023F00000EB4001A0EB8000401EC9B2C0B241EA30
:1024000000407047AA280AD25538C0B200EB4001FC
:10241000A0EB8000C9B2FF3061F31F207047AA38DB
:1024200000EB40010906090AA0EB8000401EC0B283
:1024300041EA0020704703B401984100009850EA37
:10244000C12018BF04204A0D18BF40F0010040F21F
:10245000FF72B2EB515F08BF40F00200012808BFD5
:10246000052002B070470907090E002804DB00F1BF
:10247000E02080F80014704700F00F0000F1E02029
:1024800080F8141D7047000010B52F499FED2C1BDC
:102490002DED020B84B0059820F000408842DCBF8F
:1024A00000209DED040B32DD2849884209D10498B3
:1024B00040B94FF0010000F06FFC00F03DFC06B0A9
:1024C00010BD05DB9DED040B00F02AFC06B010BD2D
:1024D00068469DED040B00F03BF810F0030011D0AE
:1024E000012818D09DED021B9DED000B02281AD08B
:1024F00000F04AFA51EC100B81F0004106B041ECBB
:10250000100B10BD9DED021B9DED000B012000F096
:102510006FFB06B010BD9DED021B9DED000B00F0A2
:1025200033FA06B010BD012000F062FB51EC100B35
:1025300081F0004106B041EC100B10BD000000001E
:102540000000000000000000FB21E93F0000F07FD8
:102550002DE9F14F04462DED020B2DED088B8AB0CD
:102560009FEDE70B80ED020B139EE74826F0004538
:1025700085420ADC9DED120B002084ED000B0AB0B1
:10258000BDEC088B03B0BDE8F08FE0489FEDE0ABF9
:102590009FEDE1BBA84247DDE14F9FEDE39B9FED3F
:1025A000E48B9DED120B53EC1A2B51EC100B002E0B
:1025B0001CDDFDF7FDFE41EC100BBD4208D053ECD5
:1025C0001B2B51EC100BFDF7F3FEC4E900010BE0EF
:1025D00053EC192B51EC100BFDF7EAFE53EC182BC2
:1025E000FDF7E6FEC4E900010120C8E7FDF73FFE64
:1025F00041EC100BBD4208D053EC1B2B51EC100BDF
:10260000FDF735FEC4E900010BE053EC192B51EC4A
:10261000100BFDF72CFE53EC182BFDF728FEC4E938
:1026200000014FF0FF30AAE7C348A84279DB9DEDD7
:10263000120B51EC100B00F0B5FB41EC180B9FEDA9
:10264000C00B53EC102BFDF7B9FE9FEDBF1B53ECF5
:10265000112BFDF70CFEFEF77CF80746FDF78FFF08
:1026600041EC190B53EC1A2BFDF7A8FE53EC182B79
:10267000FDF7A1FE41EC180B53EC1B2B51EC190B91
:10268000FDF79CFEDFF8C8A241EC100B4FEA15588D
:102690000125FA4453EC102B51EC180BFDF788FE82
:1026A000032DC4E900013DD0C1F30A5005EB4511EB
:1026B000A8EB00001139814234DA0AEB051BB0EEB9
:1026C00048AA9BED000BF0EE68AA53EC102B51ECDE
:1026D000190BFDF773FE41EC1B0B51EC1A0B53EC7D
:1026E0001B2BFDF765FE41EC180B51EC1A0B53EC5C
:1026F000182BFDF75DFE53EC1B2BFDF759FE9BEDF0
:10270000020B41EC1A0B53EC102B51EC190BFDF79B
:1027100055FE53EC1A2BFDF74BFE41EC100B6D1CD4
:10272000B8E70EE0002EA8BF3846BFF628AF94EDFC
:10273000000B51EC100B81F00041C4E9000178421C
:102740001DE7C6F3130040F4801EC6F30A50A0F242
:10275000F530471100F01F05C5F12000DDF848B045
:1027600008900020069007900520EC467949002D3E
:1027700007EB0002794408BF51F8221009D051F844
:10278000223001EB8201AB404A68089922FA01F13C
:102790001943A1FB0E26A1FB0B131A449A4234BF26
:1027A0000123002303EB06080CEB8003D3E901A609
:1027B0000E448E4234BF0121002192448A4411B15B
:1027C000924502D903E0924501D2012100E00021A7
:1027D000C3E901A641444CF82010011EA0F10100FC
:1027E000C4DC029800F10050850F0298DDE9036710
:1027F0008000DDF81480FDF7C2FE41EC1A0B304674
:10280000FDF79AFF9FED541B53EC112BFDF7D6FDFE
:1028100041EC1B0B3846FDF78FFF9FED511B53EC2E
:10282000112BFDF7CBFD41EC180B4046FDF784FF63
:102830009FED4D1B53EC112BFDF7C0FD41EC190B27
:1028400051EC180B53EC192BFDF711FD53EC1B2B1E
:10285000FDF70DFD53EC1A2BFDF709FDCDE908013D
:10286000002008909DED080B53EC1A2B51EC100B37
:10287000FDF79EFD53EC1B2BFDF79AFD53EC182B37
:10288000FDF796FD53EC192BFDF795FD9FED381BD9
:1028900053EC112BFDF792FD9FED370B41EC180B1C
:1028A00053EC102B9DED080B51EC100BFDF786FD42
:1028B00053EC182BFDF7DBFC9FED310B41EC180BB3
:1028C00053EC102B9DED080B51EC100BFDF776FD32
:1028D00053EC182BFDF7CBFC41EC100B139810F0C8
:1028E000004F06D06D4251EC100B81F0004141ECDD
:1028F000100B284684ED000B41E6000000000000AC
:102900000000000000000000FB21E93F7CD90240EC
:1029100000004054FB21F93F3163621A61B4D03D9D
:10292000FB21F93F000000000000601A61B4D03DB7
:102930007370032E8A19A33BFB213941000000006C
:1029400083C8C96D305FE43F000000000000E03F35
:102950009A080000E8070000000000000000103E98
:10296000000000000000103C000000000000103AD1
:10297000182D4454FB21F93D3326A611460B113C7A
:1029800000000054FB21F93D10B52DED040B2DED99
:10299000088B82B0B0EE419AF0EE619A0B9820F06D
:1029A00000449FED4BABB4F1795F11DA9DED0A0B5A
:1029B00051EC100BFDF7CDFE002801BFB0EE4A0A26
:1029C000F0EE6A0A02B0BDEC088B04BF04B010BD83
:1029D0009DED0A0B53EC102B51EC100BFDF7EEFCA8
:1029E00041EC180B3C480621B0EE480AF0EE680AAC
:1029F000784400F081F853EC182B51EC100BFDF7E4
:102A0000DDFC9DED0A0B41EC1B0B53EC192B51EC3B
:102A1000100BFDF7D3FC41EC190B53EC1B2B51ECC5
:102A2000180BFDF7CBFC53EC192BFDF7C1FC9FED08
:102A30002C0B41EC190B53EC102B51EC180BFDF740
:102A4000BDFC41EC100B2848844210DA53EC192BE2
:102A500051EC100BFDF7ACFC53EC1A2BFDF7ABFC63
:102A600041EC100B02B0BDEC088B04B010BD1F4848
:102A7000A042BCBF9FED1E1B8DED001B06DBA4F525
:102A800000100190002000909DED001B51EC100BF8
:102A900053EC112BFDF78CFC9DED000B41EC180B5A
:102AA00053EC102B51EC1A0BFDF782FC41EC1A0B86
:102AB00053EC192B51EC180BFDF77AFC53EC1A2B45
:102AC000FDF779FC41EC100BCCE7000000000000A2
:102AD000000000000000F03F0C05000000000000B6
:102AE000000000000000E03F3333D33F0000E93F27
:102AF000000000000000D23F70B504462DED028BAF
:102B00004D1E00EBC500B0EE408AF0EE608A90EDFD
:102B1000000B35F0060017D053EC182B51EC100BBE
:102B2000FDF74CFC41EC100B6D1E04EBC50090ED65
:102B3000001B51EC100B53EC112BFDF798FB41ECF3
:102B4000100B35F00600E7D1022D36D0042D1CD035
:102B5000062D1CBFBDEC028B70BD53EC182B51EC45
:102B6000100BFDF72BFC94ED0A1B53EC112BFDF71A
:102B70007EFB53EC182BFDF721FC94ED081B53EC66
:102B8000112BFDF774FB41EC100B53EC182B51EC9F
:102B9000100BFDF713FC94ED061B53EC112BFDF706
:102BA00066FB53EC182BFDF709FC94ED040B53EC7A
:102BB000102BFDF75CFB41EC100B53EC182B51EC88
:102BC000100BFDF7FBFB94ED021B53EC112BFDF7F3
:102BD0004EFB53EC182BFDF7F1FB94ED001B53EC6F
:102BE000112BFDF744FBBDEC028B41EC100B70BDCB
:102BF00031B504462DED040B2DED0A8BB0EE41BA34
:102C0000F0EE61BA0B989DED0A0B20F00040B0F198
:102C1000795F0DDA51EC100BFFF70DFC042808BFAB
:102C200000F09AF89DED0A0BBDEC0A8B05B030BDA3
:102C300053EC102B51EC100BFDF7C0FB41EC180BC3
:102C40009DED0A0B53EC182B51EC100BFDF7B6FB66
:102C500041EC190B2C48B0EE480AF0EE680A052149
:102C60007844FFF749FF9FED2ACBB0EE40AAF0EE83
:102C700060AA9CB353EC1C2B51EC190BFDF79EFB87
:102C800041EC1C0B53EC1A2B51EC190BFDF796FB86
:102C90009FED210B41EC190B53EC102B51EC1B0B4E
:102CA000FDF78CFB53EC192BFDF782FB53EC182B33
:102CB000FDF784FB53EC1B2BFDF77AFB53EC1C2B2D
:102CC000FDF776FB9DED0A1B53EC112BFDF773FB13
:102CD000BDEC0A8B05B041EC100B30BDFFE753ECA7
:102CE0001A2B51EC180BFDF769FB53EC1C2BFDF76D
:102CF000BEFA53EC192BFDF761FB9DED0A1B53EC5B
:102D0000112BFDF7B4FAE3E7940300000000000084
:102D1000495555555555C5BF000000000000E03F1E
:102D200010B553EC102B51EC100BFDF7A0FA41EC51
:102D3000100B10BD000000009FED050B10B553EC0B
:102D4000102B51EC100BFDF7ABFB41EC100B10BD41
:102D500000000000000000009FED050B10B553ECD3
:102D6000102B51EC100BFDF729FB41EC100B10BDA3
:102D7000000000000000001002E008C8121F08C197
:102D8000002AFAD170477047002001E001C1121FEC
:102D9000002AFBD17047000001490860704700001D
:102DA0005800002082B0CDE9000121F000400190E0
:102DB0009DED000B02B051EC100B7047FDF7CCFFFE
:102DC000FEF734FFFEF718FEFEF7F8FDFEF79CFE57
:102DD000FEF738FE04210B48FEF70EFD00210A48DD
:102DE000FEF70AFDFFF72AF94FF448760124002583
:102DF000E0B2FFF72DF96D1CB542F9DB641C0C2C19
:102E0000F5DBF3E7700300203003002070B50446C3
:102E1000FDF794FF114A5368A34208D20519002117
:102E200041EB01065D404E40354302D170BD9842F2
:102E3000FCD911782044491CCDB215700024506093
:102E40006019C0B2FFF7D0FA01462046FEF7DAFE5D
:102E5000641CA4B20E2CF3D370BD00003800002017
:102E600070B50446FDF76AFF10498A7802B9886098
:102E700001228A708A68904216D94A782044521CEE
:102E8000D5B24D7000240E2688602002B0FBF6F00B
:102E90002844C0B2FFF7A8FA01462046FEF7B2FE6A
:102EA000641CA4B20E2CF0D370BD000038000020CA
:102EB000F0B50023094C0A4D0A4E1F46E754EF5463
:102EC000F7545B1CDBB20E2BF8D30023E054E9541B
:102ED000F2545B1CDBB20E2BF8D3F0BD6A0000206D
:102EE0005C00002078000020000610160006101676
:102EF00000000000000000000102030406070809AA
:102F00004C5555555555A53F7751C1166CC156BF07
:102F10009015CB19A001FA3EAD529C804F7E92BE17
:102F2000C4B1B4BD9EEE213ED43888BEE9FAA8BD36
:102F300000004054FB21F93F3163621A61B4D03D77
:102F40000000601A61B4D03D7370032E8A19A33B50
:102F50000000002E8A19A33BC14920259A837B39A2
:102F600000000000000000006E83F9A22915444E05
:102F7000D15727FCC0DD34F5999562DB4190433C85
:102F8000AB6351FE61C5BBDE3A6E24B7E0D24D4261
:102F9000EA2E49061C92D1091CEB1DFE3EA729B161
:102FA000F53582E88444BB2E26709CE9417E5FB4EF
:102FB00039D69139F43953838B5F849C3B28F9BD12
:102FC000FF97F81F0F9805DE8B112FEF1F6D0A5A20
:102FD000CF7E366DB709CB27663F464F2DEA5F9E01
:102FE000C7BA27757BF1E5EBF739073DEA92528ABC
:102FF000B15FFB6B085D8D1FA6F810111111813FA9
:10300000D561C119A0012ABF7DFEB157E31DC73E9E
:10301000EB9C2B8AE6E55ABE7CD5CF5A3AD9E53DE2
:1030200040300008000000205C000000782D0008FF
:103030009C3000085C00002014080000882D000867
:10304000020000000000000000000000000000007E
:103050000000000000000000000000000000000070
:103060000000000000000000000000000000000060
:1030700000000000000000FF000000000000000051
:10308000000000000000000001000000100000002F
:0C309000000000000024F400000000001C
:04000005080001AD41
:00000001FF
