:020000040800F2
:1000000000070020C5010008F3150008C11400080E
:10001000F1150008D1020008171A000800000000BE
:10002000000000000000000000000000F7150008BC
:100030008503000800000000F5150008F915000808
:10004000DF010008DF010008DF010008DF01000810
:10005000DF010008DF010008DF010008DF01000800
:10006000DF010008DF010008DF010008DF010008F0
:10007000DF010008DF010008DF010008DF010008E0
:10008000DF010008DF010008DF010008DF010008D0
:10009000DF010008DF010008DF010008DF010008C0
:1000A000DF010008DF010008DF010008DF010008B0
:1000B000DF010008DF010008DF010008DF010008A0
:1000C000DF010008DF010008DF010008DF01000890
:1000D000DF010008DF010008DF010008DF01000880
:1000E000DF010008DF010008DF010008DF01000870
:1000F000DF010008DF010008DF010008DF01000860
:10010000DF010008DF010008DF010008DF0100084F
:10011000DF010008DF010008DF010008DF0100083F
:10012000DF010008DF010008DF010008D502000838
:10013000DF010008DF010008DF010008DF0100081F
:10014000DF010008DF010008DF010008DF0100080F
:10015000DF010008DF010008DF010008DF010008FF
:10016000DF010008DF010008DF010008DF010008EF
:10017000DF010008DF010008DF01000800000000C7
:10018000DF010008DF010008DF010008DF010008CF
:10019000DF010008DF010008DF010008DF010008BF
:1001A000DF010008DF010008DF010008DFF810D0E0
:1001B00000F07CF800480047571A0008AFF30080B1
:1001C000000700200648804706480047FEE7FEE794
:1001D000FEE7FEE7FEE7FEE7FEE7FEE7FEE7FEE7F7
:1001E0009D160008AD0100082DE9F05F05460020CE
:1001F00092469B4688460646814640241BE0284698
:1002000041464746224600F041F853465A46C01A36
:10021000914110D311461846224600F028F82D1AB5
:1002200067EB01084F4622460120002100F01FF82D
:1002300017EB00094E41201EA4F10104DFDC484603
:1002400031462A464346BDE8F09FD2B201E000F8AD
:10025000012B491EFBD270470022F6E710B513466A
:100260000A4604461946FFF7F0FF204610BD202A33
:1002700004DB203A00FA02F1002070479140C2F1FD
:10028000200320FA03F3194390407047202A04DB2F
:10029000203A21FA02F00021704721FA02F3D040FF
:1002A000C2F120029140084319467047064C074DA1
:1002B00006E0E06840F0010394E807009847103436
:1002C000AC42F6D3FFF776FF641B0008841B0008DE
:1002D000FEE70000014800F06BB80000A00200201B
:1002E00001681823CAB2103AB2FBF3F2054B6FF360
:1002F0000901032A9B5CC36500D9091D8165084675
:10030000704700004C1B000810B5014600208B69A7
:100310008A6A4FF0C07453B1B3F5005F15D072B163
:10032000012A0CD0022A0AD0032A09D104E01AB10A
:10033000012A06D0022A03D1C96AC90100D50120C9
:1003400010BDC96AA142FAD010BD002AF7D0012A17
:10035000F2D0022AF3D0032AF3D010BD30B50468DE
:10036000256825F480252560046863608368402B38
:10037000036803D099600068C26030BD9A6000686D
:10038000C16030BD704772B6FEE790F835100229A3
:1003900003D08021416501207047052180F8351088
:1003A0000068016821F00101016000207047000031
:1003B0002DE9F84304464FF00009CDF8009063485A
:1003C0004FF41651A56D0068B0FBF1F72E6894F854
:1003D0005C10082000FA01F131420FD021680A6850
:1003E00052070BD50A6822F004020A6094F85C10E8
:1003F0008840A860606D40F00100606594F85C1072
:100400004FF0010808FA01F0304208D0216849692C
:10041000090604D5A860606D40F00200606594F89C
:100420005C1004208840304208D0216809688907A0
:1004300004D5A860606D40F00400606594F85C101D
:1004400010208840304218D021680968090714D567
:10045000A86020680168490304D50068000308D536
:10046000A16C07E00168C90503D4016821F0080107
:100470000160216C09B12046884794F85C10202067
:100480008840304231D021680968C9062DD5A8605E
:1004900094F8350005282068016806D0490347D53F
:1004A000006800031DD4616C1CE021F0160101609E
:1004B0002068416921F080014161206C08B9A06C7D
:1004C00020B12068016821F00801016094F85C10F7
:1004D0003F208840A86084F8349084F83580216DEE
:1004E0001FE0E16B09B120468847606D00282BD0E2
:1004F000606DC00714D0052084F8350020680168BD
:1005000021F0010101600098401C0090B84203D81E
:1005100020680068C007F6D184F8349084F83580EC
:10052000E16C002910D001B02046BDE8F043084737
:100530000168C905D5D4016821F01001016084F873
:10054000349084F83580CCE7BDE8F8830C000020B7
:100550002DE9F041044600F087F906465CB100251C
:1005600084F83450022084F835002068016821F0B6
:10057000010101600DE00120BDE8F08100F074F997
:10058000801B052805D920206065032084F83500EC
:10059000F2E720680068C007F0D12268116820489F
:1005A0000140D4E901031843D4E903363343184327
:1005B00063691843A3691843E3691843236A18431E
:1005C0000843616A042903D1D4E90B131943084392
:1005D000106020684069666A20F0070130460E43CB
:1005E000012704280CD1A06A0643E06A40B12046E6
:1005F000FFF78AFE20B14020606584F83570BAE7C5
:10060000206846612046FFF76BFE94F85C203F218E
:1006100091408160656584F835700020ACE700008A
:100620003F8010F02DE9F0410446866D90F83400CB
:10063000002501280DD0012084F8340094F835708D
:100640000020012F07D084F8340002252846BDE899
:10065000F0810220FBE7022784F8357060652046B0
:10066000FFF77CFE94F85C103F208840B060206863
:10067000016841F016010160206C20B1206801681A
:1006800041F0080101602068016841F0010101604A
:10069000DCE700002DE9F84F00224FF001080325A8
:1006A0004FF00F0E0B6808FA02F42340A3426ED1FC
:1006B0004E68012E05D0022E03D0112E01D0122E2D
:1006C00012D186684FEA420C05FA0CF7BE43CF6898
:1006D00007FA0CF7374387604668A6430C79C4F3E2
:1006E0000014944034434460C668570005FA07FC80
:1006F0008C6826EA0C06BC403443C4604C68022C6B
:1007000001D0122C13D1D40800EB8404A346D4F8F2
:10071000209054074FEAD46A0EFA0AF629EA06092D
:100720000E6906FA0AF646EA0906CBF82060046864
:100730000E7924EA0C0406F00306BE402643066048
:100740004C68E4006FD53B4C266846F48046266032
:10075000246822F0030604F480440094364C3444A8
:10076000A446D4F808489607360F0EFA06F7BC439D
:10077000324FB84201D100272EE0314FB84201D1AB
:10078000012729E02F4FB84202D1022724E04AE096
:100790002D4FB84201D103271EE02C4FB84201D1A2
:1007A000042719E02A4FB84201D1052714E0294F48
:1007B000B84201D106270FE0274FB84201D10727E1
:1007C0000AE0264FB84201D1082705E0244FB8427D
:1007D00001D1092700E00A27B7402743CCF8087861
:1007E000204E34684F689C43FF0300D51C4334609F
:1007F0001C4E361D34684F689C43BF0300D51C4314
:100800003460184E083634684F689C43FF0200D5A8
:100810001C433460134E0C3634684F689C43BF024F
:1008200000D51C433460521C102AFFF43BAFBDE8D6
:10083000F88F0000443802400030014000000240C0
:100840000004024000080240000C02400010024078
:100850000014024000180240001C02400020024028
:1008600000240240003C01400148806870470000BD
:1008700000000020024881680278114481607047BE
:10088000000000200B4810B5016841F400710160C0
:10089000016841F480610160016841F48071016088
:1008A000032000F06FF8002000F006F800F024F8B4
:1008B000002010BD003C024070B50D4D04464FF4C1
:1008C0007A712878B1FBF0F00A490968B1FBF0F0C1
:1008D00000F01CFB48B9102C07D200222146501E04
:1008E00000F030F800206C6070BD012070BD000089
:1008F000000000200C0000200A4808B5016841F4FF
:1009000080410160006800F4804000900548001FAD
:10091000016841F080510160006800F08050009053
:1009200008BD000044380240002809DB00F01F0227
:10093000012191404009800000F1E020C0F8001141
:1009400070470000F0B40E4B1B680C46C3F3022343
:10095000C3F10705042D00D90425191D072901D26B
:10096000002300E0DB1E012606FA05F1491E2140A6
:1009700099409E40761E16403143F0BC01F04CB8C1
:100980000CED00E0064900F0070208684FF6FF038F
:10099000184040EA0220034A1043086070470000F4
:1009A0000CED00E00000FA052DE9F8431748016856
:1009B00041F0805101600068154F00F08050012621
:1009C00000903E64FFF750FF05464FF47A78114CD3
:1009D00005E000BFFFF748FF401B40450DD86068A9
:1009E000C003F7D57E64FFF73FFF0546464607E0A4
:1009F000FFF73AFF401BB04202D90320BDE8F8835D
:100A000060688003F4D50020F8E700004038024019
:100A100000000E42007000402DE9F0470E46050030
:100A200065D0DFF81481D8F80000F7B200F00F00AD
:100A3000B04207D288F80070D8F8000000F00F002C
:100A4000B04254D128683D4C810712D5400703D5E8
:100A5000206840F4E05020602878000703D5206823
:100A600040F4604020602068A96820F0F00008434E
:100A700020602878C0072DD03049686808390128DF
:100A800012D0022813D0032811D009688907002941
:100A90002DDA216821F0030101432160FFF7E4FE14
:100AA000814641F2883A0EE009688903EFE7096858
:100AB0008901ECE7FFF7D8FEA0EB0901514502D907
:100AC0000320BDE8F0872068696800F00C00B0EBF7
:100AD000810FEFD1D8F80010404601F00F01B1426C
:100AE00007D90770006800F00F00B04201D0012064
:100AF000E7E72878400705D52068E96820F4E0504A
:100B0000084320602878000706D52068296920F46A
:100B1000604040EAC100206000F018F82168084AEF
:100B2000C1F30311515CC8400649086006480068DB
:100B3000FFF7C2FE0020C4E7003C02400838024034
:100B4000541B00080C00002004000020154810B5BC
:100B5000006810F00C02144813D01449042A0FD076
:100B6000082A0ED10F4C241F2268236802F03F028E
:100B70005B0207D52068C0F38810A0FB010106E0E6
:100B8000084610BD2168C1F38811A1FB00010023B4
:100B9000FFF72AFB2168C1F30141491C4900B0FB62
:100BA000F1F010BD083802400024F400001BB7002B
:100BB0002DE9F84F04006ED02078DFF83C93C00791
:100BC000A9F104054AD009F104000168C1F38101CB
:100BD000012908D00068C0F3810002280AD1D9F8A1
:100BE0000000400206D52868800337D560680028D9
:100BF000E1D033E06068B0F5803F10D0B0F5A02FB1
:100C0000286810D020F480302860286820F48020E4
:100C100028606068A8B1FFF727FE06460DE0286847
:100C200040F48030F4E740F480202860F7E700BF0C
:100C3000FFF71AFE801B642873D828688003F7D555
:100C40000CE0FFF711FE064605E000BFFFF70CFEC3
:100C5000801B6428F0D828688003F7D42078DFF858
:100C60009C8280074FF0000A3ED5A348001D016812
:100C700011F00C0F08D00068C0F3810002280BD1DE
:100C8000D9F80000400207D42868800716D5E0682C
:100C9000012800D112E02BE1E068B8B10120C8F8CA
:100CA0000000FFF7E1FD064605E000BFFFF7DCFDB1
:100CB000801B0228C0D828688007F7D528682169DA
:100CC00020F0F80040EAC10028600DE0C8F800A05C
:100CD000FFF7CAFD064604E0FFF7C6FD801B0228A9
:100CE0001FD828688007F7D42078000722D5824EC5
:100CF00083486169703671B101210160FFF7B4FD6D
:100D0000074604E0FFF7B0FDC01B022809D8306891
:100D10008007F7D50EE0C0F800A0FFF7A5FD074655
:100D200005E082E0FFF7A0FDC01B02287DD83068F7
:100D30008007F7D42078400768D5DFF8BCB10027DA
:100D40000BF13C0BDBF80000C0000BD4DBF800100B
:100D500041F08051CBF80010DBF80000012700F0D3
:100D600080500090674E3068C00510D4306840F461
:100D700080703060FFF778FD009005E0FFF774FDAC
:100D80000099401A022850D83068C005F6D55A4E4E
:100D9000A0686C3601280FD00528306810D020F0EC
:100DA00001003060306820F004003060A068B8B105
:100DB000FFF75AFD00900FE0306840F00100F4E7C3
:100DC00040F004003060F7E7FFF74EFD0099411A4C
:100DD00041F28830814266D830688007F4D50EE051
:100DE000FFF742FD009007E0FFF73EFD0099411A32
:100DF00041F28830814256D830688007F4D42FB150
:100E0000DBF8001021F08051CBF80010A069C8B3C6
:100E10003949091D0968C1F3810102294AD0022814
:100E2000504607D0C8F8600000E03CE0FFF71CFD2A
:100E300004463BE04746C8F86000FFF715FD06464C
:100E400005E000BFFFF710FD801B02282BD82868A3
:100E50008001F7D4D4E907010843A16A2A4A490866
:100E600002EB0141626A41EA8211084394F82C10B6
:100E700040EA0161C9F8001001203866FFF7F4FC70
:100E8000044606E036E000BFFFF7EEFC001B022838
:100E900009D828688001F7D52CE000BFFFF7E4FCF3
:100EA000001B022802D90320BDE8F88F28688001C2
:100EB000F4D41FE00128F7D0D9F80000E26900F46B
:100EC0008001914214D1226A00F03F0191420FD17A
:100ED00047F6C071626A0140914209D1A26A00F4EA
:100EE0004031914204D1E16A00F07060884201D043
:100EF0000120D9E70020D7E704380240000047422C
:100F0000800E4742007000400000FFFF10B5401EF9
:100F1000B0F1807F01D3012010BD4FF0E02460616B
:100F20000F21601700F078FD0020A06107202061EC
:100F3000002010BD10B590F83C20012A22D00122DB
:100F400080F83C20CA688C6822F4407222434C68C6
:100F500022F4806222430C6822F4006222430C696E
:100F600022F4805222434C6922F400522243C96980
:100F7000002322F480420A4301684A6480F83C302E
:100F8000002010BD022010BD70B590F83C20012A51
:100F900032D0012480F83C40022280F83D200368D2
:100FA0005A689D6822F070060A6832435A60134BF3
:100FB00002689A4214D0B2F1804F11D0104B9A427D
:100FC0000ED0104B9A420BD00F4B9A4208D00F4BC9
:100FD0009A4205D00E4B9A4202D00E4B9A4204D14F
:100FE000496825F080031943916080F83D40002155
:100FF00080F83C10084670BD022070BD0000014022
:101000000004004000080040000C004000040140C3
:10101000004001400018004010B5040003D094F8CF
:101020003D0010B107E0012010BD002084F83C0015
:10103000204600F00DF8022084F83D00211D2068B4
:1010400000F03AFB012084F83D00002010BD0000B4
:1010500038B5054600681449884223D11349002059
:101060000A6842F002020A600968124C01F00201AB
:1010700000910F4921604FF0606161604021C4E937
:10108000021009012161490061618900C4E906106B
:10109000206260622046FFF75BFA08B1FFF773F940
:1010A000AC62A56338BD0000000401404438024032
:1010B00058640240A002002070B5044690F83C003D
:1010C000012817D0012584F83C50022084F83D0007
:1010D0002068826822F0770222F47F4282600868EA
:1010E000502830D00DDC20284DD005DC98B31028D6
:1010F0003BD148E0022070BD302844D0402834D194
:1011000039E0602828D0702806D0B0F5805F2CD058
:10111000B0F5005F29D10AE0CB68D1E90121206850
:1011200000F081FB2068816841F0770109E0CB681D
:10113000D1E90121206800F076FB2068816841F444
:101140008041816011E0CA684968206800F040FC75
:101150005021206807E016E0CA684968206800F05E
:1011600048FC6021206800F068FB84F83D500020B6
:1011700084F83C0070BDCA684968206800F028FC0B
:1011800040212068EFE7226801461046EBE77047F0
:1011900010B586B0044614216846FFF75DF80E4985
:1011A0002068884215D10D480021026842F00402EF
:1011B0000260006800F0040005908020009002208A
:1011C000CDE901010320CDE9031069460448FFF78A
:1011D00061FA06B010BD0000000401403038024042
:1011E0000008024070B5044690F83C000D46012806
:1011F0000DD0012684F83C60022084F83D0042B105
:10120000042A18D0082A2AD00C2A4DD139E002200D
:1012100070BD206800F01AFB2068816941F0080168
:1012200081612068816921F0040181612068816900
:101230002A69114311E0206800F038FB20688169B9
:1012400041F4006181612068816921F480618161DC
:10125000206881692A6941EA0221816124E02068CD
:1012600000F05AFB2068C16941F00801C1612068A3
:10127000C16921F00401C1612068C1692A69114373
:1012800011E0206800F07CFB2068C16941F4006136
:10129000C1612068C16921F48061C1612068C169B0
:1012A0002A6941EA0221C16184F83D60002084F886
:1012B0003C0070BD10B5040003D094F83D0010B19F
:1012C00007E0012010BD002084F83C00204600F01B
:1012D0000CF8022084F83D00211D206800F0ECF994
:1012E000012084F83D00002010BD70470421014812
:1012F00000F094B860020020704700002DE9F04132
:10130000044690F83D0017460D46022853D094F845
:101310003D00012805D10FB9002B6ED1022084F8C1
:101320003D00394839493A4E35B1042D16D0082DC3
:1013300044D00C2D24D153E0626AD063606A01640A
:10134000606A3946C6642268606A3432FFF76AF917
:1013500098BB2068C16841F4007110E0A26AD063B4
:10136000A06A0164A06A3946C6642268A06A38325D
:10137000FFF758F908BB2068C16841F48061C1607B
:1013800001222946206800F0FBF9224920688842A2
:1013900002D02149884203D1416C41F400414164AB
:1013A0002068816801F00701062903D0016841F037
:1013B000010101600020BDE8F0811EE0E26AD06317
:1013C000E06A0164E06A3946C6642268E06A3C3239
:1013D000FFF728F988B92068C16841F40061CEE7B9
:1013E000226BD063206B0164206B3946C66422688F
:1013F000206B4032FFF716F908B10120DBE72068C7
:10140000C16841F48051BAE79B170008D91700085A
:1014100017180008000001400004014070B50446A0
:1014200000680D0006D0042D0AD0082D38D00C2DF0
:101430000DD13BE0C16821F40071C160606A04E035
:10144000C16821F48061C160A06AFEF79EFF00229E
:101450002946206800F094F9174B41F211112068D9
:101460008A10984202D0154B984209D1036A0B4268
:1014700006D1036A134203D1436C23F4004343644F
:101480002068036A0B4206D1016A114203D1016848
:1014900021F001010160012084F83D00002070BDB1
:1014A000C16821F40061C160E06ACEE7C16821F43F
:1014B0008051C160206BC8E700000140000401407A
:1014C000FEE70000094808B5016841F480010160A9
:1014D0000068002200F48000009011463B20FFF7D6
:1014E00031FABDE808403B20FFF71EBA3038024011
:1014F0000D4808B5016841F004010160016801F080
:1015000004010091016841F080010160016801F06F
:1015100080010091016841F001010160006800F064
:101520000100009008BD00003038024010B596B0B0
:1015300000240F9410941194129413941C2108A861
:101540001494FEF789FE20216846FEF785FE2748A1
:1015500025490160E121C0E90114C46004614461CE
:101560008461FFF759FD08B1FEF70DFF4FF480507D
:101570000F900FA91D48FFF79FFD08B1FEF703FF6D
:101580001A48FFF797FE08B1FEF7FDFE139413A962
:1015900016481494FFF7F8FC08B1FEF7F4FE60203B
:1015A000CDE908040A940B940C940D94042208A924
:1015B0000E480E94FFF716FE08B1FEF7E4FE009405
:1015C0004FF40050CDE9044002940194039469461D
:1015D00006480794FFF7AEFC08B1FEF7D4FE0348B7
:1015E000FFF7D6FD16B010BD0004014060020020D8
:1015F000FEE7FEE770477047FFF73CB930B593B0A0
:1016000030216846FEF728FE14210CA8FEF724FEC0
:1016100020480025016841F080510160006800F019
:10162000805011901C48016841F4404101600068FD
:10163000022400F440401190012000900004019029
:101640008001CDE9064006200890B420CDE90904C8
:1016500004200B906846FFF7ABFA08B172B6FEE7BC
:10166000FFF7A2F908B172B6FEE70CA90F2081E8D6
:1016700031004FF4A0500F904FF48050109005218E
:101680000CA8FFF7C9F9002801D072B6FEE713B025
:1016900030BD00004038024000700040054801683D
:1016A00041F47001016003494FF000608039086027
:1016B0007047000088ED00E0F0B50268254C264D2B
:1016C000264E274F274B4FF0804CA04209D0604553
:1016D00007D0A84205D0B04203D0B84201D098420A
:1016E00004D122F0700E4A6842EA0E02A0421BD0DA
:1016F000604519D0A84217D0B04215D0B84213D0D7
:10170000984211D0184DA8420ED0184DA8420BD0C7
:10171000174DA84208D0174DA84205D0164DA84233
:1017200002D0164DA84203D122F44075CA682A435C
:101730004D6922F080022A4302608A68C2620A6808
:101740008262A04201D0984201D10969016301215E
:101750004161F0BD0000014000040040000800406D
:10176000000C0040000401400040014000440140E2
:101770000048014000180040001C004000200040CC
:1017800010B501F01F030121046A99408C430462E3
:10179000016A9A401143016210BD10B5846B0121AA
:1017A00084F83D10626A824201D121770EE0A16A7D
:1017B000814201D1022008E0E16A814201D1042086
:1017C00003E0216B814201D1082020772046FFF7FA
:1017D0008DFD0020207710BD10B5846B012184F8A9
:1017E0003D10626A824201D121770EE0A16A8142F6
:1017F00001D1022008E0E16A814201D1042003E026
:10180000216B814201D1082020772046FFF774FD2B
:101810000020207710BD10B5806B012180F83D10AD
:10182000FFF7B5FC10BD10B5846842EA032224F42A
:101830007F440A432243826010BD826822F0700216
:101840000A4342F00701816070470000F0B5026A68
:1018500022F001020262036A42688469124E24F097
:1018600073050C682C4323F002058B682B430D4D48
:10187000A84201D0B04205D123F00807CB683B4312
:1018800023F00403A84201D0B04205D14D6922F4EF
:10189000407215438A692A43426084614968416302
:1018A0000362F0BD0000014000040140F0B5026A8F
:1018B00022F010020262026A436884690D6824F40F
:1018C000E64444EA05248D6822F0200242EA05122B
:1018D0000F4D104EA84201D0B04206D1CF6822F081
:1018E000800242EA071222F04002A84201D0B04230
:1018F00007D14D6923F4406343EA85038D6943EAC8
:10190000850343608461496881630262F0BD000021
:101910000000014000040140F0B5026A22F4807228
:101920000262026A4368C46922F4007224F07305FB
:101930000C68124E2C438D6842EA05220E4DA842D7
:1019400001D0B04206D1CF6822F4006242EA0722F9
:1019500022F48062A84201D0B04207D14D6923F43D
:10196000405343EA05138D6943EA05134360C4619C
:101970004968C1630262F0BD0000014000040140FB
:1019800030B5026A22F480520262046A4268C36976
:101990000D6823F4E64343EA05238D6824F40054DC
:1019A00044EA0534084DA84202D0084DA84204D1AB
:1019B0004D6922F4804242EA85124260C36149685F
:1019C0000164046230BD00000000014000040140D9
:1019D00010B5036A046A24F001040462846924F0E7
:1019E000F00444EA021423F00A020A43846102620A
:1019F00010BD10B5036A23F0100303628369046A03
:101A000023F4704343EA023224F0A00343EA0111B5
:101A10008261016210BDFEE70907090E002804DBA0
:101A200000F1E02080F80014704700F00F0000F192
:101A3000E02080F8141D704702E008C8121F08C19A
:101A4000002AFAD170477047002001E001C1121F3F
:101A5000002AFBD17047FEF715FF092000F02CF893
:101A6000FFF7CCFDFFF744FDFFF72CFDFFF75EFD10
:101A7000092000F001F8FBE770B50546502100EBA6
:101A8000450001EBC006002407E000212346222286
:101A9000084600F031F8641CE4B2AC42F5D333469A
:101AA000BDE87040024A04210248FFF727BC00004D
:101AB000100000206002002070B50546502100EBA8
:101AC000450001EBC006002407E0FF222346114633
:101AD000104600F011F8641CE4B2AC42F5D3334672
:101AE000BDE87040024A04210248FFF707BC00002D
:101AF000100000206002002070B5134C03EB43037C
:101B000004EB03140023A03401FA03F52D0601D5DC
:101B1000952500E04A2524F8135000FA03F52D0618
:101B200001D5952600E04A2604EB43052E8202FAF1
:101B300003F6360601D5952600E04A265B1C9BB2CB
:101B40002E84082BE0D370BD100000200006101674
:101B5000000610160000000000000000010203044F
:101B600006070809841B0008000000201000000080
:101B7000381A0008941B000810000020F00600002E
:101B8000481A0008010000001000000000000000DA
:041B90000024F40039
:04000005080001AD41
:00000001FF
