:020000040800F2
:10000000D8070020C5010008371A000805190008A4
:10001000351A000891070008A31E00080000000020
:100020000000000000000000000000003B1A000873
:100030004D08000800000000391A0008911A000855
:10004000DF010008DF010008DF010008DF01000810
:10005000DF010008DF010008DF010008DF01000800
:10006000DF010008DF010008DF010008DF010008F0
:10007000DF010008DF010008DF010008DF010008E0
:10008000DF010008DF010008DF010008DF010008D0
:10009000DF010008DF010008DF010008DF010008C0
:1000A000DF010008DF010008DF010008DF010008B0
:1000B000DF010008DF010008DF010008DF010008A0
:1000C000DF010008DF010008DF010008DF01000890
:1000D000DF010008DF010008DF010008DF01000880
:1000E000DF010008DF010008DF010008DF01000870
:1000F000DF010008DF010008DF010008DF01000860
:10010000DF010008DF010008DF010008DF0100084F
:10011000DF010008DF010008DF010008DF0100083F
:10012000DF010008DF0100089D070008DF0100086B
:10013000DF010008DF010008DF010008DF0100081F
:10014000DF010008DF010008DF010008DF0100080F
:10015000DF010008DF010008DF010008DF010008FF
:10016000DF010008DF010008DF010008DF010008EF
:10017000DF010008DF010008DF01000800000000C7
:10018000DF010008DF010008DF010008DF010008CF
:10019000DF010008DF010008DF010008DF010008BF
:1001A000DF010008DF010008DF010008DFF810D0E0
:1001B00000F0B0FA00480047612C0008AFF300805F
:1001C000D80700200648804706480047FEE7FEE7BC
:1001D000FEE7FEE7FEE7FEE7FEE7FEE7FEE7FEE7F7
:1001E000291B0008AD0100082DE9F05F054600203D
:1001F00092469B4688460646814640241BE0284698
:1002000041464746224600F006FA53465A46C01A6F
:10021000914110D311461846224600F0EDF92D1AEF
:1002200067EB01084F4622460120002100F0E4F967
:1002300017EB00094E41201EA4F10104DFDC484603
:1002400031462A464346BDE8F09FD2B201E000F8AD
:10025000012B491EFBD270470022F6E710B513466A
:100260000A4604461946FFF7F0FF204610BD2DE967
:10027000FE4F804681EA0300C00F0C46009021F03B
:10028000004123F00045B8EB0200A94105D24046E9
:10029000214690461C460B46024623F00040104380
:1002A00047D0270DC7F30A00C3F30A510290401A42
:1002B000019040286BDAC3F3130040F4801B0098D0
:1002C000924620B10023D2EB030A63EB0B0B01989B
:1002D0005946C0F14002504600F08EF906460D46E0
:1002E00050465946019A00F0A6F910EB080061410A
:1002F000002487EA115284EAE7731A4340D0009A37
:1003000062B3019A012A4FEA075215DC001B61EB28
:1003100002014FF0004202EA0752CDE90042001C00
:1003200041F5801132462B4600F0A6F903B0BDE836
:10033000F08F40462146F9E7001B61EB0201001CEB
:1003400041F5801300185B412018A2F5001747EB18
:10035000030140EAD570B6196D4111E06D084FEA0E
:10036000360645EAC0754FEA0752001B61EB0201F1
:10037000001C41F5801149084FEA30000019514135
:1003800032462B4603B0BDE8F04F00F066B9009846
:10039000012240000023D0EB020263EBE0730098DF
:1003A00021464FEAE074B8EB000061EB0401E9E795
:1003B00083F000435BE781F0004158E72DE9FE4FF1
:1003C00081EA030404F0004421F0004100944FF05E
:1003D000000B23F0004350EA01045ED052EA03040C
:1003E0005BD0C3F30A54C1F30A552C44A4F2F3348E
:1003F0000194A0FB0254C1F3130141F48011C3F333
:10040000130343F4801301FB024400FB034E840AF0
:10041000970A44EA815447EA8357A4FB0768029588
:100420008D0A05FB07854FEA932C04FB0C54270526
:10043000029D4FEA065847EA1637B5EB08056EEB02
:10044000070C870E920E47EA811742EA8312A7FB38
:100450000201B6EB0B0164EB00042B0D43EA0C33F5
:100460005E1844EB1C50DA465146E7FB0201C5F327
:1004700013044FEA0B3343EA14534FEA0432019C4E
:1004800043EA0603A4F10C040294009CCDE900B4F5
:1004900000F0F2F803B0BDE8F08F00200146F9E764
:1004A0002DE9F04D81EA030404F0004B21F00045F2
:1004B00014464FF0000A23F0004150EA050220D014
:1004C00054EA01021DD0C5F30A570246C5F31303CF
:1004D000C1F31300C1F30A5640F4801543F48013AE
:1004E000A7EB0608101BD64608F2FD3873EB050093
:1004F00002D308F1010801E092185B41B8F1000F46
:1005000003DA00200146BDE8F08D00204FF4801191
:10051000064684460EE0171B73EB050705D3121B36
:1005200063EB050306434CEA010C49084FEA30002F
:1005300092185B4150EA0107EDD152EA030012D054
:1005400082EA040083EA0501084305D0101BAB4191
:1005500006D20122002306E000224FF0004302E011
:100560006FF0010253101AEB06004CEB085110EB30
:100570000A0041EB0B01BDE8F04D00F06EB80EB57E
:10058000C10F80EAE0700844CA07002140F23343FB
:100590008DE80E000A460B4600F06EF803B000BD71
:1005A000C1F30A5210B5C1F3130140F2FF3341F415
:1005B00080119A4201DA002010BD40F233439A4282
:1005C000A2F2334203DC524200F025F810BD904005
:1005D00010BD00F0004230F000400AD0C10D01F51E
:1005E0006071C0F3160042EA0151C208400711438E
:1005F0007047002001467047202A04DB203A00FAA9
:1006000002F1002070479140C2F1200320FA03F369
:10061000194390407047202A04DB203A21FA02F067
:100620000021704721FA02F3D040C2F1200291402C
:10063000084319467047202A06DBCB17203A41FAB7
:1006400002F043EAE07306E041FA02F3D040C2F15F
:100650002002914008431946704710B5141E73F1EB
:10066000000408DA401C41F1000192185B411A4372
:1006700001D120F0010010BD2DE9F04D92469B46BE
:1006800011B1B1FA81F202E0B0FA80F22032904664
:10069000FFF7B2FF04460F4640EA0A0041EA0B01A9
:1006A00053465A46084313D0114653EA010019D065
:1006B000C8F140025046FFF7AEFF05460E465046D1
:1006C00059464246FFF798FF084305D0012004E051
:1006D00020463946BDE8F08D0020054346EAE07625
:1006E0002C4337430A986305E40AA0EB0800002274
:1006F000FD0A44EA47540A3002D500200146E9E7E2
:10070000010510196941DDE9084500196941BDE895
:10071000F04DA2E7064C074D06E0E06840F001030B
:1007200094E8070098471034AC42F6D3FFF742FD37
:10073000982E0008B82E00080EB540F23341029101
:100740000021CDE900110A460B46FFF795FF03B0E3
:1007500000BD70B5C1F30A5201F000450024C1F399
:10076000130140F2FF3341F480119A4201DA002074
:1007700070BD40F233439A42A2F2334203DC52424C
:10078000FFF749FF00E090402C43F1D0404270BD9C
:10079000FEE7000440EA012010437047014800F0E2
:1007A00059B800007403002001681823CAB2103A37
:1007B000B2FBF3F2054B6FF30901032A9B5CC3659F
:1007C00000D9091D8165084670470000602D0008AA
:1007D00010B5014600208B698A6A4FF0C07453B18E
:1007E000B3F5005F15D072B1012A0CD0022A0AD0ED
:1007F000032A09D104E01AB1012A06D0022A03D142
:10080000C96AC90100D5012010BDC96AA142FAD048
:1008100010BD002AF7D0012AF2D0022AF3D0032A11
:10082000F3D010BD30B50468256825F48025256017
:10083000046863608368402B036803D09960006894
:10084000C26030BD9A600068C16030BD704772B64A
:10085000FEE700002DE9F84304464FF00009CDF80B
:10086000009063484FF41651A56D0068B0FBF1F796
:100870002E6894F85C10082000FA01F131420FD084
:1008800021680A6852070BD50A6822F004020A6040
:1008900094F85C108840A860606D40F001006065CD
:1008A00094F85C104FF0010808FA01F0304208D0CB
:1008B00021684969090604D5A860606D40F002000E
:1008C000606594F85C1004208840304208D02168AC
:1008D0000968890704D5A860606D40F00400606570
:1008E00094F85C1010208840304218D021680968C4
:1008F000090714D5A86020680168490304D5006879
:10090000000308D5A16C07E00168C90503D401689C
:1009100021F008010160216C09B12046884794F854
:100920005C1020208840304231D021680968C90617
:100930002DD5A86094F8350005282068016806D0F8
:10094000490347D5006800031DD4616C1CE021F009
:10095000160101602068416921F080014161206C2D
:1009600008B9A06C20B12068016821F0080101607D
:1009700094F85C103F208840A86084F8349084F894
:100980003580216D1FE0E16B09B120468847606D1D
:1009900000282BD0606DC00714D0052084F83500E6
:1009A0002068016821F0010101600098401C00905E
:1009B000B84203D820680068C007F6D184F83490A4
:1009C00084F83580E16C002910D001B02046BDE8E4
:1009D000F04308470168C905D5D4016821F010012A
:1009E000016084F8349084F83580CCE7BDE8F88362
:1009F000580000202DE9F041044600F087F9064632
:100A00005CB1002584F83450022084F83500206859
:100A1000016821F0010101600DE00120BDE8F081D5
:100A200000F074F9801B052805D92020606503209B
:100A300084F83500F2E720680068C007F0D122682A
:100A4000116820480140D4E901031843D4E9033672
:100A50003343184363691843A3691843E369184390
:100A6000236A18430843616A042903D1D4E90B13AC
:100A700019430843106020684069666A20F0070146
:100A800030460E43012704280CD1A06A0643E06AD1
:100A900040B12046FFF79CFE20B14020606584F8FD
:100AA0003570BAE7206846612046FFF77DFE94F86E
:100AB0005C203F2191408160656584F8357000209D
:100AC000ACE700003F8010F02DE9F0410446866D50
:100AD00090F83400002501280DD0012084F834005E
:100AE00094F835700020012F07D084F834000225D7
:100AF0002846BDE8F0810220FBE7022784F8357024
:100B000060652046FFF78EFE94F85C103F20884019
:100B1000B0602068016841F016010160206C20B1CE
:100B20002068016841F0080101602068016841F017
:100B300001010160DCE700002DE9F84F00224FF0D1
:100B4000010803254FF00F0E0B6808FA02F423404A
:100B5000A3426ED14E68012E05D0022E03D0112E75
:100B600001D0122E12D186684FEA420C05FA0CF71A
:100B7000BE43CF6807FA0CF7374387604668A64341
:100B80000C79C4F30014944034434460C6685700A1
:100B900005FA07FC8C6826EA0C06BC403443C460A6
:100BA0004C68022C01D0122C13D1D40800EB840421
:100BB000A346D4F8209054074FEAD46A0EFA0AF6F6
:100BC00029EA06090E6906FA0AF646EA0906CBF88A
:100BD000206004680E7924EA0C0406F00306BE4087
:100BE000264306604C68E4006FD53B4C266846F40B
:100BF00080462660246822F0030604F480440094B2
:100C0000364C3444A446D4F808489607360F0EFAFA
:100C100006F7BC43324FB84201D100272EE0314FD6
:100C2000B84201D1012729E02F4FB84202D1022753
:100C300024E04AE02D4FB84201D103271EE02C4F9B
:100C4000B84201D1042719E02A4FB84201D1052743
:100C500014E0294FB84201D106270FE0274FB842D0
:100C600001D107270AE0264FB84201D1082705E045
:100C7000244FB84201D1092700E00A27B740274393
:100C8000CCF80878204E34684F689C43FF0300D5A9
:100C90001C4334601C4E361D34684F689C43BF03B0
:100CA00000D51C433460184E083634684F689C43A6
:100CB000FF0200D51C433460134E0C3634684F6875
:100CC0009C43BF0200D51C433460521C102AFFF421
:100CD0003BAFBDE8F88F00004438024000300140CF
:100CE000000002400004024000080240000C0240E4
:100CF000001002400014024000180240001C024094
:100D00000020024000240240003C0140014880686D
:100D1000704700004C0000200248816802781144AE
:100D2000816070474C0000200B4810B5016841F409
:100D300000710160016841F480610160016841F463
:100D400080710160032000F06FF8002000F006F8C9
:100D500000F024F8002010BD003C024070B50D4D9D
:100D600004464FF47A712878B1FBF0F00A4909681B
:100D7000B1FBF0F000F0EEFA48B9102C07D20022D7
:100D80002146501E00F030F800206C6070BD01203C
:100D900070BD00004C000020580000200A4808B533
:100DA000016841F480410160006800F480400090D7
:100DB0000548001F016841F080510160006800F0A3
:100DC0008050009008BD000044380240002809DB34
:100DD00000F01F02012191404009800000F1E02055
:100DE000C0F8001170470000F0B40E4B1B680C46B1
:100DF000C3F30223C3F10705042D00D90425191DEF
:100E0000072901D2002300E0DB1E012606FA05F1C6
:100E1000491E214099409E40761E16403143F0BC49
:100E200001F041BA0CED00E0064900F00702086845
:100E30004FF6FF03184040EA0220034A10430860BF
:100E4000704700000CED00E00000FA052DE9F047C6
:100E50000E46050065D0DFF81481D8F80000F7B21F
:100E600000F00F00B04207D288F80070D8F80000F8
:100E700000F00F00B04254D128683D4C810712D5D4
:100E8000400703D5206840F4E05020602878000730
:100E900003D5206840F4604020602068A96820F0F5
:100EA000F000084320602878C0072DD030496868DA
:100EB0000839012812D0022813D0032811D009685C
:100EC000890700292DDA216821F0030101432160FF
:100ED000FFF71CFF814641F2883A0EE0096889035A
:100EE000EFE709688901ECE7FFF710FFA0EB0901C4
:100EF000514502D90320BDE8F0872068696800F0F9
:100F00000C00B0EB810FEFD1D8F80010404601F093
:100F10000F01B14207D90770006800F00F00B0421E
:100F200001D00120E7E72878400705D52068E96867
:100F300020F4E050084320602878000706D5206898
:100F4000296920F4604040EAC100206000F018F8F0
:100F50002168084AC1F30311515CC8400649086082
:100F600006480068FFF7FAFE0020C4E7003C024094
:100F700008380240682D000858000020500000206A
:100F8000154810B5006810F00C02144813D0411039
:100F9000042A0FD0082A0ED10F4C241F2268236880
:100FA00002F03F025B0207D52068C0F38810A0FB67
:100FB000010106E0084610BD2168C1F38811A1FBBC
:100FC00000010023FFF710F92168C1F30141491C1A
:100FD0004900B0FBF1F010BD083802400024F400D5
:100FE0002DE9F84F04006ED02078DFF83C93C0075D
:100FF000A9F104054AD009F104000168C1F3810197
:10100000012908D00068C0F3810002280AD1D9F86C
:101010000000400206D52868800337D560680028A4
:10102000E1D033E06068B0F5803F10D0B0F5A02F7C
:10103000286810D020F480302860286820F48020B0
:1010400028606068A8B1FFF761FE06460DE02868D9
:1010500040F48030F4E740F480202860F7E700BFD8
:10106000FFF754FE801B642873D828688003F7D5E7
:101070000CE0FFF74BFE064605E000BFFFF746FE1B
:10108000801B6428F0D828688003F7D42078DFF824
:101090009C8280074FF0000A3ED5A348001D0168DE
:1010A00011F00C0F08D00068C0F3810002280BD1AA
:1010B000D9F80000400207D42868800716D5E068F8
:1010C000012800D112E02BE1E068B8B10120C8F896
:1010D0000000FFF71BFE064605E000BFFFF716FE07
:1010E000801B0228C0D828688007F7D528682169A6
:1010F00020F0F80040EAC10028600DE0C8F800A028
:10110000FFF704FE064604E0FFF700FE801B0228FE
:101110001FD828688007F7D42078000722D5824E90
:1011200083486169703671B101210160FFF7EEFDFE
:10113000074604E0FFF7EAFDC01B022809D8306823
:101140008007F7D50EE0C0F800A0FFF7DFFD0746E7
:1011500005E082E0FFF7DAFDC01B02287DD8306889
:101160008007F7D42078400768D5DFF8BCB10027A6
:101170000BF13C0BDBF80000C0000BD4DBF80010D7
:1011800041F08051CBF80010DBF80000012700F09F
:1011900080500090674E3068C00510D4306840F42D
:1011A00080703060FFF7B2FD009005E0FFF7AEFD04
:1011B0000099401A022850D83068C005F6D55A4E1A
:1011C000A0686C3601280FD00528306810D020F0B8
:1011D00001003060306820F004003060A068B8B1D1
:1011E000FFF794FD00900FE0306840F00100F4E755
:1011F00040F004003060F7E7FFF788FD0099411ADE
:1012000041F28830814266D830688007F4D50EE01C
:10121000FFF77CFD009007E0FFF778FD0099411A89
:1012200041F28830814256D830688007F4D42FB11B
:10123000DBF8001021F08051CBF80010A069C8B392
:101240003949091D0968C1F3810102294AD00228E0
:10125000504607D0C8F8600000E03CE0FFF756FDBC
:1012600004463BE04746C8F86000FFF74FFD0646DE
:1012700005E000BFFFF74AFD801B02282BD8286835
:101280008001F7D4D4E907010843A16A2A4A490832
:1012900002EB0141626A41EA8211084394F82C1082
:1012A00040EA0161C9F8001001203866FFF72EFD01
:1012B000044606E036E000BFFFF728FD001B0228C9
:1012C00009D828688001F7D52CE000BFFFF71EFD84
:1012D000001B022802D90320BDE8F88F286880018E
:1012E000F4D41FE00128F7D0D9F80000E26900F437
:1012F0008001914214D1226A00F03F0191420FD146
:1013000047F6C071626A0140914209D1A26A00F4B5
:101310004031914204D1E16A00F07060884201D00E
:101320000120D9E70020D7E70438024000004742F7
:10133000800E4742007000400000FFFF4FF0E021A8
:101340000428086903D020F004000861704740F0C9
:101350000400FAE710B5401EB0F1807F01D30120F0
:1013600010BD4FF0E02460610F21601700F09BFF7B
:101370000020A06107202061002010BD10B590F86A
:101380003C20012A22D0012280F83C20CA688C68C7
:1013900022F4407222434C6822F4806222430C689B
:1013A00022F4006222430C6922F4805222434C69E9
:1013B00022F400522243C969002322F480420A43E6
:1013C00001684A6480F83C30002010BD022010BD46
:1013D00070B590F83C20012A32D0012480F83C40BE
:1013E000022280F83D2003685A689D6822F070064A
:1013F0000A6832435A60134B02689A4214D0B2F121
:10140000804F11D0104B9A420ED0104B9A420BD005
:101410000F4B9A4208D00F4B9A4205D00E4B9A427E
:1014200002D00E4B9A4204D1496825F0800319433B
:10143000916080F83D40002180F83C10084670BD66
:10144000022070BD00000140000400400008004080
:10145000000C004000040140004001400018004022
:1014600010B5040003D094F83D0010B107E001204E
:1014700010BD002084F83C00204600F00DF802204A
:1014800084F83D00211D206800F05CFB012084F8F9
:101490003D00002010BD000038B505460068144925
:1014A000884224D1134900200A6842F002020A60EF
:1014B0000968124C01F0020100910F4921604FF0C0
:1014C000606161604021C4E90210090121614900A5
:1014D00061618900C4E90610C900C4E9081020460A
:1014E000FFF788FA08B1FFF7B2F96C62A56338BD5F
:1014F000000401404438024040640240740300206C
:1015000070B5044690F83C00012817D0012584F8F6
:101510003C50022084F83D002068826822F0770267
:1015200022F47F4282600868502830D00DDC2028E9
:101530004DD005DC98B310283BD148E0022070BDA7
:10154000302844D0402834D139E0602828D0702891
:1015500006D0B0F5805F2CD0B0F5005F29D10AE04D
:10156000CB68D1E90121206800F0A3FB20688168E5
:1015700041F0770109E0CB68D1E90121206800F052
:1015800098FB2068816841F48041816011E0CA685D
:101590004968206800F062FC5021206807E016E0EE
:1015A000CA684968206800F06AFC6021206800F081
:1015B0008AFB84F83D50002084F83C0070BDCA6866
:1015C0004968206800F04AFC40212068EFE7226863
:1015D00001461046EBE7704710B586B0044614216B
:1015E0006846FEF739FE0E492068884215D10D483D
:1015F0000021026842F004020260006800F004006A
:101600000590402000900220CDE901010320CDE9A2
:10161000031069460448FFF78FFA06B010BD0000BA
:1016200000040140303802400008024070B5044612
:1016300090F83C000D4601280DD0012684F83C604E
:10164000022084F83D0042B1042A18D0082A2AD08A
:101650000C2A4DD139E0022070BD206800F03CFB1F
:101660002068816941F0080181612068816921F069
:1016700004018161206881692A69114311E02068B1
:1016800000F05AFB2068816941F4006181612068A3
:10169000816921F480618161206881692A6941EA58
:1016A0000221816124E0206800F07CFB2068C16990
:1016B00041F00801C1612068C16921F00401C161E4
:1016C0002068C1692A69114311E0206800F09EFB7F
:1016D0002068C16941F40061C1612068C16921F4D9
:1016E0008061C1612068C1692A6941EA0221C16142
:1016F00084F83D60002084F83C0070BD10B5040003
:1017000003D094F83D0010B107E0012010BD002087
:1017100084F83C00204600F00CF8022084F83D00DC
:10172000211D206800F00EFA012084F83D00002001
:1017300010BD70470021014800F0B6B83403002006
:101740007047000010B504460068012200F05EFA00
:101750000B492068884202D00A49884203D1416C73
:1017600041F4004141642068816801F007010629C5
:1017700003D0016841F001010160002010BD0000AC
:1017800000000140000401402DE9F041044690F8BA
:101790003D0017460D46022853D094F83D0001281D
:1017A00005D10FB9002B6ED1022084F83D003948D5
:1017B00039493A4E35B1042D16D0082D44D00C2DA0
:1017C00024D153E0626AD063606A0164606A39467A
:1017D000C6642268606A3432FFF776F998BB2068E5
:1017E000C16841F4007110E0A26AD063A06A01648C
:1017F000A06A3946C6642268A06A3832FFF764F9E5
:1018000008BB2068C16841F48061C160012229469B
:10181000206800F0FBF922492068884202D0214963
:10182000884203D1416C41F40041416420688168E1
:1018300001F00701062903D0016841F001010160B0
:101840000020BDE8F0811EE0E26AD063E06A016436
:10185000E06A3946C6642268E06A3C32FFF734F930
:1018600088B92068C16841F40061CEE7226BD0637B
:10187000206B0164206B3946C6642268206B4032BD
:10188000FFF722F908B10120DBE72068C16841F4C5
:101890008051BAE7271C0008651C0008A31C00083B
:1018A000000001400004014010B504460068002219
:1018B00000F0ACF9114841F21112216893108142F5
:1018C00002D00F48814209D1086A104206D1086A45
:1018D000184203D1486C20F4004048642068016A33
:1018E000114206D1016A194203D1016821F00101B8
:1018F0000160012084F83D00002010BD000001407F
:1019000000040140FEE70000094808B5016841F401
:10191000800101600068002200F480000090114600
:101920003A20FFF761FABDE808403A20FFF74EBAC7
:10193000303802400D4808B5016841F004010160EB
:10194000016801F004010091016841F0800101602B
:10195000016801F080010091016841F0010101601E
:10196000006800F00100009008BD0000303802401F
:1019700010B596B000240F941094119412941394FF
:101980001C2108A81494FEF767FC20216846FEF786
:1019900063FC27482549C0E900143B21C0E9024106
:1019A000046144618461FFF75BFD08B1FEF74FFFFE
:1019B0004FF480500F900FA91D48FFF7A1FD08B10B
:1019C000FEF745FF1A48FFF799FE08B1FEF73FFF03
:1019D000139413A916481494FFF7FAFC08B1FEF704
:1019E00036FF6020CDE908040A940B940C940D9402
:1019F000002208A90E480E94FFF718FE08B1FEF762
:101A000026FF00944FF40050CDE904400294019465
:101A10000394694606480794FFF7B0FC08B1FEF747
:101A200016FF0348FFF7D8FD16B010BD00040140B3
:101A300034030020FEE7FEE77047704770B5C0F33F
:101A40000743074CC0F30722064D074E0021C0B2E2
:101A500063546A547054491CC9B20E29F8D370BD3E
:101A60006E000020600000207C0000200E2807D2BD
:101A7000044B0A0C1A54044B0A0A1A54034A115410
:101A8000704700006E000020600000207C000020F5
:101A9000FFF742B930B593B030216846FEF7DCFB62
:101AA00014210CA8FEF7D8FB1D480025016841F061
:101AB00080510160006800F0805011901948016861
:101AC00021F4404141F4804101600068022400F4A7
:101AD000404011900120039010200490009406943F
:101AE0000820CDE907506020CDE9090404200B90BF
:101AF0006846FFF775FA08B172B6FEE70F20CDE928
:101B00000C0480200E904001CDE90F0501210CA8A6
:101B1000FFF79CF9002801D072B6FEE713B030BD84
:101B200040380240007000400548016841F47001EF
:101B3000016003494FF00060803908607047000081
:101B400088ED00E0F0B50268254C264D264E274F63
:101B5000274B4FF0804CA04209D0604507D0A842E7
:101B600005D0B04203D0B84201D0984204D122F04F
:101B7000700E4A6842EA0E02A0421BD0604519D09E
:101B8000A84217D0B04215D0B84213D0984211D015
:101B9000184DA8420ED0184DA8420BD0174DA842A0
:101BA00008D0174DA84205D0164DA84202D0164DB8
:101BB000A84203D122F44075CA682A434D6922F035
:101BC00080022A4302608A68C2620A688262A04276
:101BD00001D0984201D10969016301214161F0BD41
:101BE000000001400004004000080040000C0040DC
:101BF0000004014000400140004401400048014011
:101C000000180040001C00400020004010B501F00A
:101C10001F030121046A99408C430462016A9A40BF
:101C20001143016210BD10B5846B012184F83D1091
:101C3000626A824201D121770EE0A16A814201D11C
:101C4000022008E0E16A814201D1042003E0216B17
:101C5000814201D1082020772046FFF76BFD00204C
:101C6000207710BD10B5846B012184F83D10626AA5
:101C7000824201D121770EE0A16A814201D1022086
:101C800008E0E16A814201D1042003E0216B814236
:101C900001D1082020772046FFF752FD0020207751
:101CA00010BD10B5806B012180F83D10FFF793FC4B
:101CB00010BD10B5846842EA032224F47F440A432D
:101CC0002243826010BD826822F070020A4342F013
:101CD0000701816070470000F0B5026A22F001023E
:101CE0000262036A42688469124E24F073050C682C
:101CF0002C4323F002058B682B430D4DA84201D0E5
:101D0000B04205D123F00807CB683B4323F004031E
:101D1000A84201D0B04205D14D6922F4407215436A
:101D20008A692A4342608461496841630362F0BD65
:101D30000000014000040140F0B5026A22F01002E8
:101D40000262026A436884690D6824F4E64444EA46
:101D500005248D6822F0200242EA05120F4D104E34
:101D6000A84201D0B04206D1CF6822F0800242EAF8
:101D7000071222F04002A84201D0B04207D14D69BB
:101D800023F4406343EA85038D6943EA8503436096
:101D90008461496881630262F0BD00000000014077
:101DA00000040140F0B5026A22F480720262026A05
:101DB0004368C46922F4007224F073050C68124E63
:101DC0002C438D6842EA05220E4DA84201D0B04254
:101DD00006D1CF6822F4006242EA072222F4806230
:101DE000A84201D0B04207D14D6923F4405343EAE1
:101DF00005138D6943EA05134360C4614968C163F3
:101E00000262F0BD000001400004014030B5026AEA
:101E100022F480520262046A4268C3690D6823F4A6
:101E2000E64343EA05238D6824F4005444EA05346C
:101E3000084DA84202D0084DA84204D14D6922F4B1
:101E4000804242EA85124260C361496801640462CB
:101E500030BD0000000001400004014010B5036ADD
:101E6000046A24F001040462846924F0F00444EA62
:101E7000021423F00A020A438461026210BD10B505
:101E8000036A23F0100303628369046A23F4704336
:101E900043EA023224F0A00343EA011182610162A5
:101EA00010BDFEE7194910B508700C2824D2DFE8F0
:101EB00000F023060A0D101316191C1F061F0A2016
:101EC00000F026FF1AE000F023F817E000F048F8D1
:101ED00014E000F097F811E000F0E6F80EE000F0F2
:101EE000EFF80BE000F0F8F808E000F001F905E089
:101EF000142000F0E3FE01E00220087000F04AF92F
:101F0000BDE810400A2000F077BE0000000000206D
:101F100010B5FEF7FBFE114CA17A01B9E061012179
:101F2000A172E169884217D9A230E061607A401C51
:101F3000C0B260720E2801D3002060720020FFF74B
:101F40007DFD012200212820FEF723FC0146607A56
:101F5000BDE81040FFF78ABD10BD00000000002062
:101F600010B52DED028BFEF7D1FE21490A7B02B997
:101F7000086201220A730A6A904236D90A3008625E
:101F8000C87A421CCA72642801D90020C872C87A73
:101F9000DFED180A00EE100A9FED171AB8EE400A9E
:101FA00060EE200A80EE810A10EE100AFEF711FBA7
:101FB00041EC100B00F088F99FED108B51EC100BE9
:101FC00053EC182BFEF7FAF953EC182BFEF74FF9E8
:101FD000FEF7E6FA0022C0B21146FEF7DAFBBDECCE
:101FE000028BBDE81040FFF729BDBDEC028B10BD90
:101FF00000000020780FC9400000C8420000000027
:102000000000494010B52DED028BFEF77FFE2149FF
:102010008A7B02B9486201228A734A6A904236D9A1
:102020000A304862487B421C4A73642801D9002068
:102030004873487BDFED180A00EE100A9FED171A6F
:10204000B8EE400A60EE200A80EE810A10EE100A17
:10205000FEF7BFFA41EC100B00F036F99FED108B44
:1020600051EC100B53EC182BFEF7A8F953EC182B7E
:10207000FEF7FDF8FEF794FAC0B202460021FEF723
:1020800088FBBDEC028BBDE81040FFF7D7BCBDEC70
:10209000028B10BD00000020780FC9400000C8422C
:1020A000000000000000494010B525220021282032
:1020B000FEF76FFBFFF7C2FCBDE8104000F06AB806
:1020C00010B5002236213720FEF763FBFFF7B6FC80
:1020D000BDE8104000F05EB810B501224021104666
:1020E000FEF757FBFFF7AAFCBDE8104000F052B81E
:1020F00010B52DED028BFEF709FE21490A7C02B9CD
:10210000886201220A748A6A904236D90A3088624B
:10211000C87B421CCA73642801D90020C873C87BDD
:10212000DFED180A00EE100A9FED171AB8EE400A0C
:1021300060EE200A80EE810A10EE100AFEF749FADE
:1021400041EC100B00F0C0F89FED108B51EC100B20
:1021500053EC182BFEF732F953EC182BFEF787F8E7
:10216000FEF71EFAC1B200221046FEF712FBBDECCC
:10217000028BBDE81040FFF761BCBDEC028B10BDC7
:1021800000000020780FC9400000C8420000000095
:10219000000049402DE9F05FDFF884A000200AF13B
:1021A0000E0B4FF080090AF11C0E0AF12A071AF8EB
:1021B00000501BF800401EF80030002100EB400CDE
:1021C00029FA01F2154202D04FF0260801E04FF043
:1021D000130801EBCC0607EB46061442A6F806806E
:1021E00002D04FF0260801E04FF01308A6F8168041
:1021F000134201D0262200E01322491C49B2F28486
:102200000829DDDB401C40B20E28D0DBBDE8F05FC2
:10221000034A4FF4AA732A3200210248FFF7B4BAE6
:102220006000002034030020C0F1FF00552809D2CF
:1022300000EB4001A0EB8000401EC9B2C0B241EAF1
:1022400000407047AA280AD25538C0B200EB4001BE
:10225000A0EB8000C9B2FF3061F31F207047AA389D
:1022600000EB40010906090AA0EB8000401EC0B245
:1022700041EA0020704703B401984100009850EAF9
:10228000C12018BF04204A0D18BF40F0010040F2E1
:10229000FF72B2EB515F08BF40F00200012808BF97
:1022A000052002B070470907090E002804DB00F181
:1022B000E02080F80014704700F00F0000F1E020EB
:1022C00080F8141D7047000010B52F499FED2C1B9E
:1022D0002DED020B84B0059820F000408842DCBF51
:1022E00000209DED040B32DD2849884209D1049875
:1022F00040B94FF0010000F06FFC00F03DFC06B06B
:1023000010BD05DB9DED040B00F02AFC06B010BDEE
:1023100068469DED040B00F03BF810F0030011D06F
:10232000012818D09DED021B9DED000B02281AD04C
:1023300000F04AFA51EC100B81F0004106B041EC7C
:10234000100B10BD9DED021B9DED000B012000F058
:102350006FFB06B010BD9DED021B9DED000B00F064
:1023600033FA06B010BD012000F062FB51EC100BF7
:1023700081F0004106B041EC100B10BD00000000E0
:102380000000000000000000FB21E93F0000F07F9A
:102390002DE9F14F04462DED020B2DED088B8AB08F
:1023A0009FEDE70B80ED020B139EE74826F00045FA
:1023B00085420ADC9DED120B002084ED000B0AB073
:1023C000BDEC088B03B0BDE8F08FE0489FEDE0ABBB
:1023D0009FEDE1BBA84247DDE14F9FEDE39B9FED01
:1023E000E48B9DED120B53EC1A2B51EC100B002ECD
:1023F0001CDDFDF7DDFF41EC100BBD4208D053ECB6
:102400001B2B51EC100BFDF7D3FFC4E900010BE0CF
:1024100053EC192B51EC100BFDF7CAFF53EC182BA2
:10242000FDF7C6FFC4E900010120C8E7FDF71FFF63
:1024300041EC100BBD4208D053EC1B2B51EC100BA0
:10244000FDF715FFC4E900010BE053EC192B51EC2B
:10245000100BFDF70CFF53EC182BFDF708FFC4E938
:1024600000014FF0FF30AAE7C348A84279DB9DED99
:10247000120B51EC100B00F0E7FB41EC180B9FED39
:10248000C00B53EC102BFDF799FF9FEDBF1B53ECD6
:10249000112BFDF7ECFEFEF75CF90746FEF76FF82F
:1024A00041EC190B53EC1A2BFDF788FF53EC182B5A
:1024B000FDF781FF41EC180B53EC1B2B51EC190B72
:1024C000FDF77CFFDFF8C8A241EC100B4FEA15586E
:1024D0000125FA4453EC102B51EC180BFDF768FF63
:1024E000032DC4E900013DD0C1F30A5005EB4511AD
:1024F000A8EB00001139814234DA0AEB051BB0EE7B
:1025000048AA9BED000BF0EE68AA53EC102B51EC9F
:10251000190BFDF753FF41EC1B0B51EC1A0B53EC5D
:102520001B2BFDF745FF41EC180B51EC1A0B53EC3C
:10253000182BFDF73DFF53EC1B2BFDF739FF9BEDEF
:10254000020B41EC1A0B53EC102B51EC190BFDF75D
:1025500035FF53EC1A2BFDF72BFF41EC100B6D1CD4
:10256000B8E70EE0002EA8BF3846BFF628AF94EDBE
:10257000000B51EC100B81F00041C4E900017842DE
:102580001DE7C6F3130040F4801EC6F30A50A0F204
:10259000F530471100F01F05C5F12000DDF848B007
:1025A00008900020069007900520EC467949002D00
:1025B00007EB0002794408BF51F8221009D051F806
:1025C000223001EB8201AB404A68089922FA01F1FE
:1025D0001943A1FB0E26A1FB0B131A449A4234BFE8
:1025E0000123002303EB06080CEB8003D3E901A6CB
:1025F0000E448E4234BF0121002192448A4411B11D
:10260000924502D903E0924501D2012100E0002168
:10261000C3E901A641444CF82010011EA0F10100BD
:10262000C4DC029800F10050850F0298DDE90367D1
:102630008000DDF81480FDF7A2FF41EC1A0B304654
:10264000FEF77AF89FED541B53EC112BFDF7B6FE05
:1026500041EC1B0B3846FEF76FF89FED511B53EC16
:10266000112BFDF7ABFE41EC180B4046FEF764F86A
:102670009FED4D1B53EC112BFDF7A0FE41EC190B08
:1026800051EC180B53EC192BFDF7F1FD53EC1B2B00
:10269000FDF7EDFD53EC1A2BFDF7E9FDCDE908013F
:1026A000002008909DED080B53EC1A2B51EC100BF9
:1026B000FDF77EFE53EC1B2BFDF77AFE53EC182B37
:1026C000FDF776FE53EC192BFDF775FE9FED381BD9
:1026D00053EC112BFDF772FE9FED370B41EC180BFD
:1026E00053EC102B9DED080B51EC100BFDF766FE23
:1026F00053EC182BFDF7BBFD9FED310B41EC180B94
:1027000053EC102B9DED080B51EC100BFDF756FE12
:1027100053EC182BFDF7ABFD41EC100B139810F0A8
:10272000004F06D06D4251EC100B81F0004141EC9E
:10273000100B284684ED000B41E60000000000006D
:102740000000000000000000FB21E93F7CD90240AE
:1027500000004054FB21F93F3163621A61B4D03D5F
:10276000FB21F93F000000000000601A61B4D03D79
:102770007370032E8A19A33BFB213941000000002E
:1027800083C8C96D305FE43F000000000000E03FF7
:10279000D208000020080000000000000000103EE9
:1027A000000000000000103C000000000000103A93
:1027B000182D4454FB21F93D3326A611460B113C3C
:1027C00000000054FB21F93D10B52DED040B2DED5B
:1027D000088B82B0B0EE419AF0EE619A0B9820F02F
:1027E00000449FED4BABB4F1795F11DA9DED0A0B1C
:1027F00051EC100BFDF7ADFF002801BFB0EE4A0A07
:10280000F0EE6A0A02B0BDEC088B04BF04B010BD44
:102810009DED0A0B53EC102B51EC100BFDF7CEFD88
:1028200041EC180B3C480621B0EE480AF0EE680A6D
:10283000784400F081F853EC182B51EC100BFDF7A5
:10284000BDFD9DED0A0B41EC1B0B53EC192B51EC1C
:10285000100BFDF7B3FD41EC190B53EC1B2B51ECA6
:10286000180BFDF7ABFD53EC192BFDF7A1FD9FED08
:102870002C0B41EC190B53EC102B51EC180BFDF702
:102880009DFD41EC100B2848844210DA53EC192BC3
:1028900051EC100BFDF78CFD53EC1A2BFDF78BFD63
:1028A00041EC100B02B0BDEC088B04B010BD1F480A
:1028B000A042BCBF9FED1E1B8DED001B06DBA4F5E7
:1028C00000100190002000909DED001B51EC100BBA
:1028D00053EC112BFDF76CFD9DED000B41EC180B3B
:1028E00053EC102B51EC1A0BFDF762FD41EC1A0B67
:1028F00053EC192B51EC180BFDF75AFD53EC1A2B26
:10290000FDF759FD41EC100BCCE700000000000082
:10291000000000000000F03F44050000000000003F
:10292000000000000000E03F3333D33F0000E93FE8
:10293000000000000000D23F70B504462DED028B70
:102940004D1E00EBC500B0EE408AF0EE608A90EDBF
:10295000000B35F0060017D053EC182B51EC100B80
:10296000FDF72CFD41EC100B6D1E04EBC50090ED46
:10297000001B51EC100B53EC112BFDF778FC41ECD4
:10298000100B35F00600E7D1022D36D0042D1CD0F7
:10299000062D1CBFBDEC028B70BD53EC182B51EC07
:1029A000100BFDF70BFD94ED0A1B53EC112BFDF7FB
:1029B0005EFC53EC182BFDF701FD94ED081B53EC66
:1029C000112BFDF754FC41EC100B53EC182B51EC80
:1029D000100BFDF7F3FC94ED061B53EC112BFDF7E8
:1029E00046FC53EC182BFDF7E9FC94ED040B53EC7B
:1029F000102BFDF73CFC41EC100B53EC182B51EC69
:102A0000100BFDF7DBFC94ED021B53EC112BFDF7D3
:102A10002EFC53EC182BFDF7D1FC94ED001B53EC6E
:102A2000112BFDF724FCBDEC028B41EC100B70BDAB
:102A300031B504462DED040B2DED0A8BB0EE41BAF5
:102A4000F0EE61BA0B989DED0A0B20F00040B0F15A
:102A5000795F0DDA51EC100BFFF70DFC042808BF6D
:102A600000F09AF89DED0A0BBDEC0A8B05B030BD65
:102A700053EC102B51EC100BFDF7A0FC41EC180BA4
:102A80009DED0A0B53EC182B51EC100BFDF796FC47
:102A900041EC190B2C48B0EE480AF0EE680A05210B
:102AA0007844FFF749FF9FED2ACBB0EE40AAF0EE45
:102AB00060AA9CB353EC1C2B51EC190BFDF77EFC68
:102AC00041EC1C0B53EC1A2B51EC190BFDF776FC67
:102AD0009FED210B41EC190B53EC102B51EC1B0B10
:102AE000FDF76CFC53EC192BFDF762FC53EC182B33
:102AF000FDF764FC53EC1B2BFDF75AFC53EC1C2B2D
:102B0000FDF756FC9DED0A1B53EC112BFDF753FC12
:102B1000BDEC0A8B05B041EC100B30BDFFE753EC68
:102B20001A2B51EC180BFDF749FC53EC1C2BFDF74D
:102B30009EFB53EC192BFDF741FC9DED0A1B53EC5A
:102B4000112BFDF794FBE3E7CC030000000000002D
:102B5000495555555555C5BF000000000000E03FE0
:102B600010B553EC102B51EC100BFDF780FB41EC32
:102B7000100B10BD000000009FED050B10B553ECCD
:102B8000102B51EC100BFDF78BFC41EC100B10BD22
:102B900000000000000000009FED050B10B553EC95
:102BA000102B51EC100BFDF709FC41EC100B10BD84
:102BB000000000000000001002E008C8121F08C159
:102BC000002AFAD170477047002001E001C1121FAE
:102BD000002AFBD1704700000149086070470000DF
:102BE0005C00002010B504460420FEF7A7FB014856
:102BF000046010BD3800002070B5054600244FF475
:102C00007A7603E0304600F005F8641CAC42F9D354
:102C100070BD000070B54FF0E024002265690949DD
:102C2000A36909684843A1699942FCD002D2A3EB89
:102C3000010302E0A5EB010633441A440B4682422D
:102C4000F1D370BD3800002082B0CDE9000121F041
:102C5000004001909DED000B02B051EC100B70474D
:102C6000FEF762F8FEF716FF4820FFF7BBFFFEF7FE
:102C700061FEFEF749FEFEF77BFE00210E48FEF7DF
:102C800061FD0D491E200968486304210A48FEF7CA
:102C900059FD4FF47A70FFF7AFFF4FF448760124E7
:102CA0000025E0B2FFF7FEF86D1CB542F9DB641CAD
:102CB0000C2CF5DBF3E700003403002070B504466C
:102CC000FEF724F8114A5368A34208D205190021DF
:102CD00041EB01065D404E40354302D170BD984244
:102CE000FCD911782044491CCDB2157000245060E5
:102CF0006019C0B2FFF798FA01462046FEF7B6FE0B
:102D0000641CA4B20E2CF3D370BD00003C00002064
:102D100070B50446FDF7FAFF10498A7802B9886059
:102D200001228A708A68904216D94A782044521C3F
:102D3000D5B24D7000240E2688602002B0FBF6F05C
:102D40002844C0B2FFF770FA01462046FEF78EFE17
:102D5000641CA4B20E2CF0D370BD00003C00002017
:102D6000000610160006101600000000000000000B
:102D700001020304060708094C5555555555A53F52
:102D80007751C1166CC156BF9015CB19A001FA3E00
:102D9000AD529C804F7E92BEC4B1B4BD9EEE213E2A
:102DA000D43888BEE9FAA8BD00004054FB21F93FA1
:102DB0003163621A61B4D03D0000601A61B4D03D45
:102DC0007370032E8A19A33B0000002E8A19A33BBF
:102DD000C14920259A837B390000000000000000D3
:102DE0006E83F9A22915444ED15727FCC0DD34F576
:102DF000999562DB4190433CAB6351FE61C5BBDEFC
:102E00003A6E24B7E0D24D42EA2E49061C92D1090F
:102E10001CEB1DFE3EA729B1F53582E88444BB2E8C
:102E200026709CE9417E5FB439D69139F4395383D9
:102E30008B5F849C3B28F9BDFF97F81F0F9805DE38
:102E40008B112FEF1F6D0A5ACF7E366DB709CB2736
:102E5000663F464F2DEA5F9EC7BA27757BF1E5EBCB
:102E6000F739073DEA92528AB15FFB6B085D8D1F0F
:102E7000A6F810111111813FD561C119A0012ABF17
:102E80007DFEB157E31DC73EEB9C2B8AE6E55ABE9B
:102E90007CD5CF5A3AD9E53DB82E00080000002075
:102EA00060000000B82B0008182F00086000002008
:102EB00078070000C82B0008020000000000000096
:102EC0000000000000000000000000000000000002
:102ED00000000000000000000000000000000000F2
:102EE000000000000000000000000000000000FFE3
:102EF00000000000000000000000000000000000D2
:102F000000000000010000001000000000000000B0
:082F10000024F40000000000A1
:04000005080001AD41
:00000001FF
